{
  "_format": "hh-sol-artifact-1",
  "contractName": "Voting",
  "sourceName": "contracts/Voting.sol",
  "abi": [
    {
      "inputs": [],
      "stateMutability": "nonpayable",
      "type": "constructor"
    },
    {
      "anonymous": false,
      "inputs": [
        {
          "indexed": false,
          "internalType": "address",
          "name": "admin",
          "type": "address"
        },
        {
          "indexed": false,
          "internalType": "bool",
          "name": "isAdmin",
          "type": "bool"
        }
      ],
      "name": "AdminStatusChanged",
      "type": "event"
    },
    {
      "anonymous": false,
      "inputs": [
        {
          "indexed": true,
          "internalType": "address",
          "name": "previousOwner",
          "type": "address"
        },
        {
          "indexed": true,
          "internalType": "address",
          "name": "newOwner",
          "type": "address"
        }
      ],
      "name": "OwnershipTransferred",
      "type": "event"
    },
    {
      "anonymous": false,
      "inputs": [
        {
          "indexed": false,
          "internalType": "uint256",
          "name": "proposalId",
          "type": "uint256"
        },
        {
          "indexed": false,
          "internalType": "enum Voting.ApprovalStatus",
          "name": "status",
          "type": "uint8"
        }
      ],
      "name": "ProposalApprovalStatusChanged",
      "type": "event"
    },
    {
      "anonymous": false,
      "inputs": [
        {
          "indexed": false,
          "internalType": "uint256",
          "name": "proposalId",
          "type": "uint256"
        }
      ],
      "name": "ProposalRegistered",
      "type": "event"
    },
    {
      "anonymous": false,
      "inputs": [
        {
          "indexed": false,
          "internalType": "address",
          "name": "voter",
          "type": "address"
        },
        {
          "indexed": false,
          "internalType": "uint256",
          "name": "proposalId",
          "type": "uint256"
        }
      ],
      "name": "Voted",
      "type": "event"
    },
    {
      "anonymous": false,
      "inputs": [
        {
          "indexed": false,
          "internalType": "address",
          "name": "voter",
          "type": "address"
        },
        {
          "indexed": false,
          "internalType": "enum Voting.ApprovalStatus",
          "name": "status",
          "type": "uint8"
        }
      ],
      "name": "VoterApprovalStatusChanged",
      "type": "event"
    },
    {
      "anonymous": false,
      "inputs": [
        {
          "indexed": false,
          "internalType": "address",
          "name": "voterAddress",
          "type": "address"
        }
      ],
      "name": "VoterRegistered",
      "type": "event"
    },
    {
      "anonymous": false,
      "inputs": [
        {
          "indexed": false,
          "internalType": "enum Voting.WorkflowStatus",
          "name": "previousStatus",
          "type": "uint8"
        },
        {
          "indexed": false,
          "internalType": "enum Voting.WorkflowStatus",
          "name": "newStatus",
          "type": "uint8"
        }
      ],
      "name": "WorkflowStatusChange",
      "type": "event"
    },
    {
      "inputs": [
        {
          "internalType": "address",
          "name": "",
          "type": "address"
        }
      ],
      "name": "admins",
      "outputs": [
        {
          "internalType": "bool",
          "name": "",
          "type": "bool"
        }
      ],
      "stateMutability": "view",
      "type": "function"
    },
    {
      "inputs": [
        {
          "internalType": "uint256",
          "name": "_proposalId",
          "type": "uint256"
        },
        {
          "internalType": "enum Voting.ApprovalStatus",
          "name": "_status",
          "type": "uint8"
        }
      ],
      "name": "approveRejectProposal",
      "outputs": [],
      "stateMutability": "nonpayable",
      "type": "function"
    },
    {
      "inputs": [
        {
          "internalType": "address",
          "name": "_voterAddress",
          "type": "address"
        },
        {
          "internalType": "enum Voting.ApprovalStatus",
          "name": "_status",
          "type": "uint8"
        }
      ],
      "name": "approveRejectVoter",
      "outputs": [],
      "stateMutability": "nonpayable",
      "type": "function"
    },
    {
      "inputs": [],
      "name": "endProposalRegistration",
      "outputs": [],
      "stateMutability": "nonpayable",
      "type": "function"
    },
    {
      "inputs": [],
      "name": "endVotingSession",
      "outputs": [],
      "stateMutability": "nonpayable",
      "type": "function"
    },
    {
      "inputs": [
        {
          "internalType": "enum Voting.VotingStatus",
          "name": "_status",
          "type": "uint8"
        }
      ],
      "name": "getApprovedProposals",
      "outputs": [
        {
          "internalType": "uint256[]",
          "name": "",
          "type": "uint256[]"
        }
      ],
      "stateMutability": "view",
      "type": "function"
    },
    {
      "inputs": [],
      "name": "getApprovedVoters",
      "outputs": [
        {
          "internalType": "address[]",
          "name": "",
          "type": "address[]"
        }
      ],
      "stateMutability": "view",
      "type": "function"
    },
    {
      "inputs": [
        {
          "internalType": "uint256",
          "name": "_proposalId",
          "type": "uint256"
        }
      ],
      "name": "getProposal",
      "outputs": [
        {
          "internalType": "string",
          "name": "name",
          "type": "string"
        },
        {
          "internalType": "uint256",
          "name": "voteCount",
          "type": "uint256"
        },
        {
          "internalType": "string",
          "name": "documentIPFSHash",
          "type": "string"
        },
        {
          "internalType": "string",
          "name": "profileImageIPFSHash",
          "type": "string"
        },
        {
          "internalType": "address",
          "name": "submitter",
          "type": "address"
        },
        {
          "internalType": "enum Voting.ApprovalStatus",
          "name": "approvalStatus",
          "type": "uint8"
        },
        {
          "internalType": "enum Voting.VotingStatus",
          "name": "votingStatus",
          "type": "uint8"
        }
      ],
      "stateMutability": "view",
      "type": "function"
    },
    {
      "inputs": [
        {
          "internalType": "address",
          "name": "_voterAddress",
          "type": "address"
        }
      ],
      "name": "getVoter",
      "outputs": [
        {
          "internalType": "bool",
          "name": "isRegistered",
          "type": "bool"
        },
        {
          "internalType": "bool",
          "name": "hasVoted",
          "type": "bool"
        },
        {
          "internalType": "uint256",
          "name": "votedProposalId",
          "type": "uint256"
        },
        {
          "internalType": "string",
          "name": "documentIPFSHash",
          "type": "string"
        },
        {
          "internalType": "string",
          "name": "profileImageIPFSHash",
          "type": "string"
        },
        {
          "internalType": "enum Voting.ApprovalStatus",
          "name": "approvalStatus",
          "type": "uint8"
        }
      ],
      "stateMutability": "view",
      "type": "function"
    },
    {
      "inputs": [],
      "name": "getWinningProposal",
      "outputs": [
        {
          "internalType": "uint256",
          "name": "winningProposalId",
          "type": "uint256"
        }
      ],
      "stateMutability": "view",
      "type": "function"
    },
    {
      "inputs": [],
      "name": "owner",
      "outputs": [
        {
          "internalType": "address",
          "name": "",
          "type": "address"
        }
      ],
      "stateMutability": "view",
      "type": "function"
    },
    {
      "inputs": [
        {
          "internalType": "uint256",
          "name": "",
          "type": "uint256"
        }
      ],
      "name": "proposals",
      "outputs": [
        {
          "internalType": "string",
          "name": "name",
          "type": "string"
        },
        {
          "internalType": "uint256",
          "name": "voteCount",
          "type": "uint256"
        },
        {
          "internalType": "string",
          "name": "documentIPFSHash",
          "type": "string"
        },
        {
          "internalType": "string",
          "name": "profileImageIPFSHash",
          "type": "string"
        },
        {
          "internalType": "address",
          "name": "submitter",
          "type": "address"
        },
        {
          "internalType": "enum Voting.ApprovalStatus",
          "name": "approvalStatus",
          "type": "uint8"
        },
        {
          "internalType": "enum Voting.VotingStatus",
          "name": "votingStatus",
          "type": "uint8"
        }
      ],
      "stateMutability": "view",
      "type": "function"
    },
    {
      "inputs": [
        {
          "internalType": "string",
          "name": "_name",
          "type": "string"
        },
        {
          "internalType": "string",
          "name": "_documentIPFSHash",
          "type": "string"
        },
        {
          "internalType": "string",
          "name": "_profileImageIPFSHash",
          "type": "string"
        }
      ],
      "name": "registerProposal",
      "outputs": [],
      "stateMutability": "nonpayable",
      "type": "function"
    },
    {
      "inputs": [
        {
          "internalType": "string",
          "name": "_documentIPFSHash",
          "type": "string"
        },
        {
          "internalType": "string",
          "name": "_profileImageIPFSHash",
          "type": "string"
        }
      ],
      "name": "registerVoter",
      "outputs": [],
      "stateMutability": "nonpayable",
      "type": "function"
    },
    {
      "inputs": [
        {
          "internalType": "address",
          "name": "_adminAddress",
          "type": "address"
        },
        {
          "internalType": "bool",
          "name": "_isAdmin",
          "type": "bool"
        }
      ],
      "name": "setAdmin",
      "outputs": [],
      "stateMutability": "nonpayable",
      "type": "function"
    },
    {
      "inputs": [],
      "name": "startProposalRegistration",
      "outputs": [],
      "stateMutability": "nonpayable",
      "type": "function"
    },
    {
      "inputs": [],
      "name": "startVotingSession",
      "outputs": [],
      "stateMutability": "nonpayable",
      "type": "function"
    },
    {
      "inputs": [],
      "name": "tallyVotes",
      "outputs": [],
      "stateMutability": "nonpayable",
      "type": "function"
    },
    {
      "inputs": [
        {
          "internalType": "address",
          "name": "newOwner",
          "type": "address"
        }
      ],
      "name": "transferOwnership",
      "outputs": [],
      "stateMutability": "nonpayable",
      "type": "function"
    },
    {
      "inputs": [
        {
          "internalType": "uint256",
          "name": "_proposalId",
          "type": "uint256"
        },
        {
          "internalType": "string",
          "name": "_name",
          "type": "string"
        },
        {
          "internalType": "string",
          "name": "_documentIPFSHash",
          "type": "string"
        },
        {
          "internalType": "string",
          "name": "_profileImageIPFSHash",
          "type": "string"
        }
      ],
      "name": "updateProposal",
      "outputs": [],
      "stateMutability": "nonpayable",
      "type": "function"
    },
    {
      "inputs": [
        {
          "internalType": "string",
          "name": "_documentIPFSHash",
          "type": "string"
        },
        {
          "internalType": "string",
          "name": "_profileImageIPFSHash",
          "type": "string"
        }
      ],
      "name": "updateVoter",
      "outputs": [],
      "stateMutability": "nonpayable",
      "type": "function"
    },
    {
      "inputs": [
        {
          "internalType": "uint256",
          "name": "_proposalId",
          "type": "uint256"
        }
      ],
      "name": "vote",
      "outputs": [],
      "stateMutability": "nonpayable",
      "type": "function"
    },
    {
      "inputs": [
        {
          "internalType": "address",
          "name": "",
          "type": "address"
        }
      ],
      "name": "voters",
      "outputs": [
        {
          "internalType": "bool",
          "name": "isRegistered",
          "type": "bool"
        },
        {
          "internalType": "bool",
          "name": "hasVoted",
          "type": "bool"
        },
        {
          "internalType": "uint256",
          "name": "votedProposalId",
          "type": "uint256"
        },
        {
          "internalType": "string",
          "name": "documentIPFSHash",
          "type": "string"
        },
        {
          "internalType": "string",
          "name": "profileImageIPFSHash",
          "type": "string"
        },
        {
          "internalType": "enum Voting.ApprovalStatus",
          "name": "approvalStatus",
          "type": "uint8"
        }
      ],
      "stateMutability": "view",
      "type": "function"
    },
    {
      "inputs": [],
      "name": "workflowStatus",
      "outputs": [
        {
          "internalType": "enum Voting.WorkflowStatus",
          "name": "",
          "type": "uint8"
        }
      ],
      "stateMutability": "view",
      "type": "function"
    }
  ],
  "bytecode": "0x60806040523480156200001157600080fd5b50336000806101000a81548173ffffffffffffffffffffffffffffffffffffffff021916908373ffffffffffffffffffffffffffffffffffffffff16021790555060008060146101000a81548160ff021916908360058111156200007a5762000079620000dd565b5b02179055506001600560003373ffffffffffffffffffffffffffffffffffffffff1673ffffffffffffffffffffffffffffffffffffffff16815260200190815260200160002060006101000a81548160ff0219169083151502179055506200010c565b7f4e487b7100000000000000000000000000000000000000000000000000000000600052602160045260246000fd5b614412806200011c6000396000f3fe608060405234801561001057600080fd5b50600436106101585760003560e01c806397a0da93116100c3578063c7f758a81161007c578063c7f758a814610382578063d4f50f98146103b8578063e3b34c88146103ed578063e85a8f2a14610409578063ee74c67814610413578063f2fde38b1461041d57610158565b806397a0da93146102bb5780639ebf9ae8146102eb578063a1edffa214610307578063a3ec138d14610325578063a51346201461035a578063a7bfab161461037857610158565b80634b0bddd2116101155780634b0bddd21461020f5780635f396ace1461022b578063656b4d4414610247578063860d27fa146102655780638a4c8847146102815780638da5cb5b1461029d57610158565b80630121b93f1461015d578063013cf08b1461017957806302453b5e146101af5780630f7e2838146101cb578063378a2178146101d5578063429b62e5146101df575b600080fd5b61017760048036038101906101729190612d62565b610439565b005b610193600480360381019061018e9190612d62565b6107da565b6040516101a69796959493929190612f2e565b60405180910390f35b6101c960048036038101906101c49190612fd7565b6109ee565b005b6101d3610b9c565b005b6101dd610d5c565b005b6101f960048036038101906101f49190613043565b610fcf565b604051610206919061308b565b60405180910390f35b610229600480360381019061022491906130d2565b610fef565b005b61024560048036038101906102409190613112565b611111565b005b61024f611329565b60405161025c9190613210565b60405180910390f35b61027f600480360381019061027a9190613367565b611485565b005b61029b60048036038101906102969190613367565b61165d565b005b6102a56118e5565b6040516102b291906133df565b60405180910390f35b6102d560048036038101906102d0919061341f565b611909565b6040516102e2919061350a565b60405180910390f35b6103056004803603810190610300919061352c565b611a5a565b005b61030f611d87565b60405161031c919061361b565b60405180910390f35b61033f600480360381019061033a9190613043565b611d9a565b60405161035196959493929190613636565b60405180910390f35b610362611f0d565b60405161036f91906136a5565b60405180910390f35b610380611fe8565b005b61039c60048036038101906103979190612d62565b6121a8565b6040516103af9796959493929190612f2e565b60405180910390f35b6103d260048036038101906103cd9190613043565b612433565b6040516103e496959493929190613636565b60405180910390f35b610407600480360381019061040291906136c0565b6125f0565b005b6104116127de565b005b61041b61299e565b005b61043760048036038101906104329190613043565b612b5e565b005b6003600581111561044d5761044c612e6f565b5b600060149054906101000a900460ff16600581111561046f5761046e612e6f565b5b146104af576040517f08c379a00000000000000000000000000000000000000000000000000000000081526004016104a6906137c7565b60405180910390fd5b600160028111156104c3576104c2612e6f565b5b600360003373ffffffffffffffffffffffffffffffffffffffff1673ffffffffffffffffffffffffffffffffffffffff16815260200190815260200160002060040160009054906101000a900460ff16600281111561052557610524612e6f565b5b14610565576040517f08c379a000000000000000000000000000000000000000000000000000000000815260040161055c90613833565b60405180910390fd5b600360003373ffffffffffffffffffffffffffffffffffffffff1673ffffffffffffffffffffffffffffffffffffffff16815260200190815260200160002060000160019054906101000a900460ff16156105f5576040517f08c379a00000000000000000000000000000000000000000000000000000000081526004016105ec9061389f565b60405180910390fd5b60008111801561060757506001548111155b610646576040517f08c379a000000000000000000000000000000000000000000000000000000000815260040161063d9061390b565b60405180910390fd5b6001600281111561065a57610659612e6f565b5b6004600083815260200190815260200160002060040160149054906101000a900460ff1660028111156106905761068f612e6f565b5b146106d0576040517f08c379a00000000000000000000000000000000000000000000000000000000081526004016106c790613977565b60405180910390fd5b6001600360003373ffffffffffffffffffffffffffffffffffffffff1673ffffffffffffffffffffffffffffffffffffffff16815260200190815260200160002060000160016101000a81548160ff02191690831515021790555080600360003373ffffffffffffffffffffffffffffffffffffffff1673ffffffffffffffffffffffffffffffffffffffff16815260200190815260200160002060010181905550600460008281526020019081526020016000206001016000815480929190610799906139c6565b91905055507f4d99b957a2bc29a30ebd96a7be8e68fe50a3c701db28a91436490b7d53870ca433826040516107cf929190613a0e565b60405180910390a150565b60046020528060005260406000206000915090508060000180546107fd90613a66565b80601f016020809104026020016040519081016040528092919081815260200182805461082990613a66565b80156108765780601f1061084b57610100808354040283529160200191610876565b820191906000526020600020905b81548152906001019060200180831161085957829003601f168201915b50505050509080600101549080600201805461089190613a66565b80601f01602080910402602001604051908101604052809291908181526020018280546108bd90613a66565b801561090a5780601f106108df5761010080835404028352916020019161090a565b820191906000526020600020905b8154815290600101906020018083116108ed57829003601f168201915b50505050509080600301805461091f90613a66565b80601f016020809104026020016040519081016040528092919081815260200182805461094b90613a66565b80156109985780601f1061096d57610100808354040283529160200191610998565b820191906000526020600020905b81548152906001019060200180831161097b57829003601f168201915b5050505050908060040160009054906101000a900473ffffffffffffffffffffffffffffffffffffffff16908060040160149054906101000a900460ff16908060040160159054906101000a900460ff16905087565b600560003373ffffffffffffffffffffffffffffffffffffffff1673ffffffffffffffffffffffffffffffffffffffff16815260200190815260200160002060009054906101000a900460ff1680610a91575060008054906101000a900473ffffffffffffffffffffffffffffffffffffffff1673ffffffffffffffffffffffffffffffffffffffff163373ffffffffffffffffffffffffffffffffffffffff16145b610ad0576040517f08c379a0000000000000000000000000000000000000000000000000000000008152600401610ac790613b09565b60405180910390fd5b600082118015610ae257506001548211155b610b21576040517f08c379a0000000000000000000000000000000000000000000000000000000008152600401610b189061390b565b60405180910390fd5b806004600084815260200190815260200160002060040160146101000a81548160ff02191690836002811115610b5a57610b59612e6f565b5b02179055507f10c7061ca6990f792e209dd10d4ed0d2aaae9fce6c1e7b33a4c75fc3aec57dd68282604051610b90929190613b29565b60405180910390a15050565b600560003373ffffffffffffffffffffffffffffffffffffffff1673ffffffffffffffffffffffffffffffffffffffff16815260200190815260200160002060009054906101000a900460ff1680610c3f575060008054906101000a900473ffffffffffffffffffffffffffffffffffffffff1673ffffffffffffffffffffffffffffffffffffffff163373ffffffffffffffffffffffffffffffffffffffff16145b610c7e576040517f08c379a0000000000000000000000000000000000000000000000000000000008152600401610c7590613b09565b60405180910390fd5b60006005811115610c9257610c91612e6f565b5b600060149054906101000a900460ff166005811115610cb457610cb3612e6f565b5b14610cf4576040517f08c379a0000000000000000000000000000000000000000000000000000000008152600401610ceb90613bc4565b60405180910390fd5b6001600060146101000a81548160ff02191690836005811115610d1a57610d19612e6f565b5b02179055507f0a97a4ee45751e2abf3e4fc8946939630b11b371ea8ae39ccdc3056e98f5cc3f60006001604051610d52929190613be4565b60405180910390a1565b600560003373ffffffffffffffffffffffffffffffffffffffff1673ffffffffffffffffffffffffffffffffffffffff16815260200190815260200160002060009054906101000a900460ff1680610dff575060008054906101000a900473ffffffffffffffffffffffffffffffffffffffff1673ffffffffffffffffffffffffffffffffffffffff163373ffffffffffffffffffffffffffffffffffffffff16145b610e3e576040517f08c379a0000000000000000000000000000000000000000000000000000000008152600401610e3590613b09565b60405180910390fd5b60046005811115610e5257610e51612e6f565b5b600060149054906101000a900460ff166005811115610e7457610e73612e6f565b5b14610eb4576040517f08c379a0000000000000000000000000000000000000000000000000000000008152600401610eab90613c7f565b60405180910390fd5b6005600060146101000a81548160ff02191690836005811115610eda57610ed9612e6f565b5b02179055506000600190505b6001548111610f915760016002811115610f0357610f02612e6f565b5b6004600083815260200190815260200160002060040160149054906101000a900460ff166002811115610f3957610f38612e6f565b5b03610f7e5760016004600083815260200190815260200160002060040160156101000a81548160ff02191690836001811115610f7857610f77612e6f565b5b02179055505b8080610f89906139c6565b915050610ee6565b507f0a97a4ee45751e2abf3e4fc8946939630b11b371ea8ae39ccdc3056e98f5cc3f60046005604051610fc5929190613be4565b60405180910390a1565b60056020528060005260406000206000915054906101000a900460ff1681565b60008054906101000a900473ffffffffffffffffffffffffffffffffffffffff1673ffffffffffffffffffffffffffffffffffffffff163373ffffffffffffffffffffffffffffffffffffffff161461107d576040517f08c379a000000000000000000000000000000000000000000000000000000000815260040161107490613d11565b60405180910390fd5b80600560008473ffffffffffffffffffffffffffffffffffffffff1673ffffffffffffffffffffffffffffffffffffffff16815260200190815260200160002060006101000a81548160ff0219169083151502179055507fc63c72d6995119c079ef24c02679d49838905c8e81df9e632011b914e6f592f68282604051611105929190613d31565b60405180910390a15050565b600560003373ffffffffffffffffffffffffffffffffffffffff1673ffffffffffffffffffffffffffffffffffffffff16815260200190815260200160002060009054906101000a900460ff16806111b4575060008054906101000a900473ffffffffffffffffffffffffffffffffffffffff1673ffffffffffffffffffffffffffffffffffffffff163373ffffffffffffffffffffffffffffffffffffffff16145b6111f3576040517f08c379a00000000000000000000000000000000000000000000000000000000081526004016111ea90613b09565b60405180910390fd5b600360008373ffffffffffffffffffffffffffffffffffffffff1673ffffffffffffffffffffffffffffffffffffffff16815260200190815260200160002060000160009054906101000a900460ff16611282576040517f08c379a000000000000000000000000000000000000000000000000000000000815260040161127990613da6565b60405180910390fd5b80600360008473ffffffffffffffffffffffffffffffffffffffff1673ffffffffffffffffffffffffffffffffffffffff16815260200190815260200160002060040160006101000a81548160ff021916908360028111156112e7576112e6612e6f565b5b02179055507f92959ebfe9dc1aaf4fcbc8f8b78210ce36676c5db564101499f20f27acc15047828260405161131d929190613dc6565b60405180910390a15050565b6060600060025467ffffffffffffffff8111156113495761134861323c565b5b6040519080825280602002602001820160405280156113775781602001602082028036833780820191505090505b509050600080600190505b600254811161147c576000819050600160028111156113a4576113a3612e6f565b5b600360008373ffffffffffffffffffffffffffffffffffffffff1673ffffffffffffffffffffffffffffffffffffffff16815260200190815260200160002060040160009054906101000a900460ff16600281111561140657611405612e6f565b5b03611468578084848151811061141f5761141e613def565b5b602002602001019073ffffffffffffffffffffffffffffffffffffffff16908173ffffffffffffffffffffffffffffffffffffffff16815250508280611464906139c6565b9350505b508080611474906139c6565b915050611382565b50819250505090565b600360003373ffffffffffffffffffffffffffffffffffffffff1673ffffffffffffffffffffffffffffffffffffffff16815260200190815260200160002060000160009054906101000a900460ff16611514576040517f08c379a000000000000000000000000000000000000000000000000000000000815260040161150b90613da6565b60405180910390fd5b81600360003373ffffffffffffffffffffffffffffffffffffffff1673ffffffffffffffffffffffffffffffffffffffff16815260200190815260200160002060020190816115639190613fca565b5080600360003373ffffffffffffffffffffffffffffffffffffffff1673ffffffffffffffffffffffffffffffffffffffff16815260200190815260200160002060030190816115b39190613fca565b506000600360003373ffffffffffffffffffffffffffffffffffffffff1673ffffffffffffffffffffffffffffffffffffffff16815260200190815260200160002060040160006101000a81548160ff0219169083600281111561161a57611619612e6f565b5b02179055507f92959ebfe9dc1aaf4fcbc8f8b78210ce36676c5db564101499f20f27acc15047336000604051611651929190613dc6565b60405180910390a15050565b6000600581111561167157611670612e6f565b5b600060149054906101000a900460ff16600581111561169357611692612e6f565b5b146116d3576040517f08c379a00000000000000000000000000000000000000000000000000000000081526004016116ca906140e8565b60405180910390fd5b600360003373ffffffffffffffffffffffffffffffffffffffff1673ffffffffffffffffffffffffffffffffffffffff16815260200190815260200160002060000160009054906101000a900460ff1615611763576040517f08c379a000000000000000000000000000000000000000000000000000000000815260040161175a90614154565b60405180910390fd5b6040518060c0016040528060011515815260200160001515815260200160008152602001838152602001828152602001600060028111156117a7576117a6612e6f565b5b815250600360003373ffffffffffffffffffffffffffffffffffffffff1673ffffffffffffffffffffffffffffffffffffffff16815260200190815260200160002060008201518160000160006101000a81548160ff02191690831515021790555060208201518160000160016101000a81548160ff0219169083151502179055506040820151816001015560608201518160020190816118489190613fca565b50608082015181600301908161185e9190613fca565b5060a08201518160040160006101000a81548160ff0219169083600281111561188a57611889612e6f565b5b0217905550905050600260008154809291906118a5906139c6565b91905055507fb6be2187d059cc2a55fe29e0e503b566e1e0f8c8780096e185429350acffd3dd336040516118d991906133df565b60405180910390a15050565b60008054906101000a900473ffffffffffffffffffffffffffffffffffffffff1681565b6060600060015467ffffffffffffffff8111156119295761192861323c565b5b6040519080825280602002602001820160405280156119575781602001602082028036833780820191505090505b509050600080600190505b6001548111611a4f576001600281111561197f5761197e612e6f565b5b6004600083815260200190815260200160002060040160149054906101000a900460ff1660028111156119b5576119b4612e6f565b5b148015611a0857508460018111156119d0576119cf612e6f565b5b6004600083815260200190815260200160002060040160159054906101000a900460ff166001811115611a0657611a05612e6f565b5b145b15611a3c5780838381518110611a2157611a20613def565b5b6020026020010181815250508180611a38906139c6565b9250505b8080611a47906139c6565b915050611962565b508192505050919050565b600560003373ffffffffffffffffffffffffffffffffffffffff1673ffffffffffffffffffffffffffffffffffffffff16815260200190815260200160002060009054906101000a900460ff1680611afd575060008054906101000a900473ffffffffffffffffffffffffffffffffffffffff1673ffffffffffffffffffffffffffffffffffffffff163373ffffffffffffffffffffffffffffffffffffffff16145b611b3c576040517f08c379a0000000000000000000000000000000000000000000000000000000008152600401611b3390613b09565b60405180910390fd5b60016005811115611b5057611b4f612e6f565b5b600060149054906101000a900460ff166005811115611b7257611b71612e6f565b5b14611bb2576040517f08c379a0000000000000000000000000000000000000000000000000000000008152600401611ba9906141e6565b60405180910390fd5b60016000815480929190611bc5906139c6565b9190505550600060015490506040518060e00160405280858152602001600081526020018481526020018381526020013373ffffffffffffffffffffffffffffffffffffffff16815260200160006002811115611c2557611c24612e6f565b5b815260200160006001811115611c3e57611c3d612e6f565b5b815250600460008381526020019081526020016000206000820151816000019081611c699190613fca565b50602082015181600101556040820151816002019081611c899190613fca565b506060820151816003019081611c9f9190613fca565b5060808201518160040160006101000a81548173ffffffffffffffffffffffffffffffffffffffff021916908373ffffffffffffffffffffffffffffffffffffffff16021790555060a08201518160040160146101000a81548160ff02191690836002811115611d1257611d11612e6f565b5b021790555060c08201518160040160156101000a81548160ff02191690836001811115611d4257611d41612e6f565b5b02179055509050507f92e393e9b54e2f801d3ea4beb0c5e71a21cc34a5d34b77d0fb8a3aa1650dc18f81604051611d7991906136a5565b60405180910390a150505050565b600060149054906101000a900460ff1681565b60036020528060005260406000206000915090508060000160009054906101000a900460ff16908060000160019054906101000a900460ff1690806001015490806002018054611de990613a66565b80601f0160208091040260200160405190810160405280929190818152602001828054611e1590613a66565b8015611e625780601f10611e3757610100808354040283529160200191611e62565b820191906000526020600020905b815481529060010190602001808311611e4557829003601f168201915b505050505090806003018054611e7790613a66565b80601f0160208091040260200160405190810160405280929190818152602001828054611ea390613a66565b8015611ef05780601f10611ec557610100808354040283529160200191611ef0565b820191906000526020600020905b815481529060010190602001808311611ed357829003601f168201915b5050505050908060040160009054906101000a900460ff16905086565b6000600580811115611f2257611f21612e6f565b5b600060149054906101000a900460ff166005811115611f4457611f43612e6f565b5b14611f84576040517f08c379a0000000000000000000000000000000000000000000000000000000008152600401611f7b90614252565b60405180910390fd5b600080600190505b6001548111611fe3578160046000838152602001908152602001600020600101541115611fd057600460008281526020019081526020016000206001015491508092505b8080611fdb906139c6565b915050611f8c565b505090565b600560003373ffffffffffffffffffffffffffffffffffffffff1673ffffffffffffffffffffffffffffffffffffffff16815260200190815260200160002060009054906101000a900460ff168061208b575060008054906101000a900473ffffffffffffffffffffffffffffffffffffffff1673ffffffffffffffffffffffffffffffffffffffff163373ffffffffffffffffffffffffffffffffffffffff16145b6120ca576040517f08c379a00000000000000000000000000000000000000000000000000000000081526004016120c190613b09565b60405180910390fd5b600360058111156120de576120dd612e6f565b5b600060149054906101000a900460ff166005811115612100576120ff612e6f565b5b14612140576040517f08c379a0000000000000000000000000000000000000000000000000000000008152600401612137906137c7565b60405180910390fd5b6004600060146101000a81548160ff0219169083600581111561216657612165612e6f565b5b02179055507f0a97a4ee45751e2abf3e4fc8946939630b11b371ea8ae39ccdc3056e98f5cc3f6003600460405161219e929190613be4565b60405180910390a1565b60606000606080600080600080881180156121c557506001548811155b612204576040517f08c379a00000000000000000000000000000000000000000000000000000000081526004016121fb9061390b565b60405180910390fd5b6000600460008a8152602001908152602001600020905080600001816001015482600201836003018460040160009054906101000a900473ffffffffffffffffffffffffffffffffffffffff168560040160149054906101000a900460ff168660040160159054906101000a900460ff1686805461228190613a66565b80601f01602080910402602001604051908101604052809291908181526020018280546122ad90613a66565b80156122fa5780601f106122cf576101008083540402835291602001916122fa565b820191906000526020600020905b8154815290600101906020018083116122dd57829003601f168201915b5050505050965084805461230d90613a66565b80601f016020809104026020016040519081016040528092919081815260200182805461233990613a66565b80156123865780601f1061235b57610100808354040283529160200191612386565b820191906000526020600020905b81548152906001019060200180831161236957829003601f168201915b5050505050945083805461239990613a66565b80601f01602080910402602001604051908101604052809291908181526020018280546123c590613a66565b80156124125780601f106123e757610100808354040283529160200191612412565b820191906000526020600020905b8154815290600101906020018083116123f557829003601f168201915b50505050509350975097509750975097509750975050919395979092949650565b6000806000606080600080600360008973ffffffffffffffffffffffffffffffffffffffff1673ffffffffffffffffffffffffffffffffffffffff16815260200190815260200160002090508060000160009054906101000a900460ff168160000160019054906101000a900460ff16826001015483600201846003018560040160009054906101000a900460ff168280546124ce90613a66565b80601f01602080910402602001604051908101604052809291908181526020018280546124fa90613a66565b80156125475780601f1061251c57610100808354040283529160200191612547565b820191906000526020600020905b81548152906001019060200180831161252a57829003601f168201915b5050505050925081805461255a90613a66565b80601f016020809104026020016040519081016040528092919081815260200182805461258690613a66565b80156125d35780601f106125a8576101008083540402835291602001916125d3565b820191906000526020600020905b8154815290600101906020018083116125b657829003601f168201915b505050505091509650965096509650965096505091939550919395565b600560003373ffffffffffffffffffffffffffffffffffffffff1673ffffffffffffffffffffffffffffffffffffffff16815260200190815260200160002060009054906101000a900460ff1680612693575060008054906101000a900473ffffffffffffffffffffffffffffffffffffffff1673ffffffffffffffffffffffffffffffffffffffff163373ffffffffffffffffffffffffffffffffffffffff16145b6126d2576040517f08c379a00000000000000000000000000000000000000000000000000000000081526004016126c990613b09565b60405180910390fd5b6000841180156126e457506001548411155b612723576040517f08c379a000000000000000000000000000000000000000000000000000000000815260040161271a9061390b565b60405180910390fd5b60006004600086815260200190815260200160002090508381600001908161274b9190613fca565b508281600201908161275d9190613fca565b508181600301908161276f9190613fca565b5060008160040160146101000a81548160ff0219169083600281111561279857612797612e6f565b5b02179055507f10c7061ca6990f792e209dd10d4ed0d2aaae9fce6c1e7b33a4c75fc3aec57dd68560006040516127cf929190613b29565b60405180910390a15050505050565b600560003373ffffffffffffffffffffffffffffffffffffffff1673ffffffffffffffffffffffffffffffffffffffff16815260200190815260200160002060009054906101000a900460ff1680612881575060008054906101000a900473ffffffffffffffffffffffffffffffffffffffff1673ffffffffffffffffffffffffffffffffffffffff163373ffffffffffffffffffffffffffffffffffffffff16145b6128c0576040517f08c379a00000000000000000000000000000000000000000000000000000000081526004016128b790613b09565b60405180910390fd5b600160058111156128d4576128d3612e6f565b5b600060149054906101000a900460ff1660058111156128f6576128f5612e6f565b5b14612936576040517f08c379a000000000000000000000000000000000000000000000000000000000815260040161292d906142e4565b60405180910390fd5b6002600060146101000a81548160ff0219169083600581111561295c5761295b612e6f565b5b02179055507f0a97a4ee45751e2abf3e4fc8946939630b11b371ea8ae39ccdc3056e98f5cc3f60016002604051612994929190613be4565b60405180910390a1565b600560003373ffffffffffffffffffffffffffffffffffffffff1673ffffffffffffffffffffffffffffffffffffffff16815260200190815260200160002060009054906101000a900460ff1680612a41575060008054906101000a900473ffffffffffffffffffffffffffffffffffffffff1673ffffffffffffffffffffffffffffffffffffffff163373ffffffffffffffffffffffffffffffffffffffff16145b612a80576040517f08c379a0000000000000000000000000000000000000000000000000000000008152600401612a7790613b09565b60405180910390fd5b60026005811115612a9457612a93612e6f565b5b600060149054906101000a900460ff166005811115612ab657612ab5612e6f565b5b14612af6576040517f08c379a0000000000000000000000000000000000000000000000000000000008152600401612aed90614350565b60405180910390fd5b6003600060146101000a81548160ff02191690836005811115612b1c57612b1b612e6f565b5b02179055507f0a97a4ee45751e2abf3e4fc8946939630b11b371ea8ae39ccdc3056e98f5cc3f60026003604051612b54929190613be4565b60405180910390a1565b60008054906101000a900473ffffffffffffffffffffffffffffffffffffffff1673ffffffffffffffffffffffffffffffffffffffff163373ffffffffffffffffffffffffffffffffffffffff1614612bec576040517f08c379a0000000000000000000000000000000000000000000000000000000008152600401612be390613d11565b60405180910390fd5b600073ffffffffffffffffffffffffffffffffffffffff168173ffffffffffffffffffffffffffffffffffffffff1603612c5b576040517f08c379a0000000000000000000000000000000000000000000000000000000008152600401612c52906143bc565b60405180910390fd5b8073ffffffffffffffffffffffffffffffffffffffff1660008054906101000a900473ffffffffffffffffffffffffffffffffffffffff1673ffffffffffffffffffffffffffffffffffffffff167f8be0079c531659141344cd1fd0a4f28419497f9722a3daafe3b4186f6b6457e060405160405180910390a3806000806101000a81548173ffffffffffffffffffffffffffffffffffffffff021916908373ffffffffffffffffffffffffffffffffffffffff16021790555050565b6000604051905090565b600080fd5b600080fd5b6000819050919050565b612d3f81612d2c565b8114612d4a57600080fd5b50565b600081359050612d5c81612d36565b92915050565b600060208284031215612d7857612d77612d22565b5b6000612d8684828501612d4d565b91505092915050565b600081519050919050565b600082825260208201905092915050565b60005b83811015612dc9578082015181840152602081019050612dae565b60008484015250505050565b6000601f19601f8301169050919050565b6000612df182612d8f565b612dfb8185612d9a565b9350612e0b818560208601612dab565b612e1481612dd5565b840191505092915050565b612e2881612d2c565b82525050565b600073ffffffffffffffffffffffffffffffffffffffff82169050919050565b6000612e5982612e2e565b9050919050565b612e6981612e4e565b82525050565b7f4e487b7100000000000000000000000000000000000000000000000000000000600052602160045260246000fd5b60038110612eaf57612eae612e6f565b5b50565b6000819050612ec082612e9e565b919050565b6000612ed082612eb2565b9050919050565b612ee081612ec5565b82525050565b60028110612ef757612ef6612e6f565b5b50565b6000819050612f0882612ee6565b919050565b6000612f1882612efa565b9050919050565b612f2881612f0d565b82525050565b600060e0820190508181036000830152612f48818a612de6565b9050612f576020830189612e1f565b8181036040830152612f698188612de6565b90508181036060830152612f7d8187612de6565b9050612f8c6080830186612e60565b612f9960a0830185612ed7565b612fa660c0830184612f1f565b98975050505050505050565b60038110612fbf57600080fd5b50565b600081359050612fd181612fb2565b92915050565b60008060408385031215612fee57612fed612d22565b5b6000612ffc85828601612d4d565b925050602061300d85828601612fc2565b9150509250929050565b61302081612e4e565b811461302b57600080fd5b50565b60008135905061303d81613017565b92915050565b60006020828403121561305957613058612d22565b5b60006130678482850161302e565b91505092915050565b60008115159050919050565b61308581613070565b82525050565b60006020820190506130a0600083018461307c565b92915050565b6130af81613070565b81146130ba57600080fd5b50565b6000813590506130cc816130a6565b92915050565b600080604083850312156130e9576130e8612d22565b5b60006130f78582860161302e565b9250506020613108858286016130bd565b9150509250929050565b6000806040838503121561312957613128612d22565b5b60006131378582860161302e565b925050602061314885828601612fc2565b9150509250929050565b600081519050919050565b600082825260208201905092915050565b6000819050602082019050919050565b61318781612e4e565b82525050565b6000613199838361317e565b60208301905092915050565b6000602082019050919050565b60006131bd82613152565b6131c7818561315d565b93506131d28361316e565b8060005b838110156132035781516131ea888261318d565b97506131f5836131a5565b9250506001810190506131d6565b5085935050505092915050565b6000602082019050818103600083015261322a81846131b2565b905092915050565b600080fd5b600080fd5b7f4e487b7100000000000000000000000000000000000000000000000000000000600052604160045260246000fd5b61327482612dd5565b810181811067ffffffffffffffff821117156132935761329261323c565b5b80604052505050565b60006132a6612d18565b90506132b2828261326b565b919050565b600067ffffffffffffffff8211156132d2576132d161323c565b5b6132db82612dd5565b9050602081019050919050565b82818337600083830152505050565b600061330a613305846132b7565b61329c565b90508281526020810184848401111561332657613325613237565b5b6133318482856132e8565b509392505050565b600082601f83011261334e5761334d613232565b5b813561335e8482602086016132f7565b91505092915050565b6000806040838503121561337e5761337d612d22565b5b600083013567ffffffffffffffff81111561339c5761339b612d27565b5b6133a885828601613339565b925050602083013567ffffffffffffffff8111156133c9576133c8612d27565b5b6133d585828601613339565b9150509250929050565b60006020820190506133f46000830184612e60565b92915050565b6002811061340757600080fd5b50565b600081359050613419816133fa565b92915050565b60006020828403121561343557613434612d22565b5b60006134438482850161340a565b91505092915050565b600081519050919050565b600082825260208201905092915050565b6000819050602082019050919050565b61348181612d2c565b82525050565b60006134938383613478565b60208301905092915050565b6000602082019050919050565b60006134b78261344c565b6134c18185613457565b93506134cc83613468565b8060005b838110156134fd5781516134e48882613487565b97506134ef8361349f565b9250506001810190506134d0565b5085935050505092915050565b6000602082019050818103600083015261352481846134ac565b905092915050565b60008060006060848603121561354557613544612d22565b5b600084013567ffffffffffffffff81111561356357613562612d27565b5b61356f86828701613339565b935050602084013567ffffffffffffffff8111156135905761358f612d27565b5b61359c86828701613339565b925050604084013567ffffffffffffffff8111156135bd576135bc612d27565b5b6135c986828701613339565b9150509250925092565b600681106135e4576135e3612e6f565b5b50565b60008190506135f5826135d3565b919050565b6000613605826135e7565b9050919050565b613615816135fa565b82525050565b6000602082019050613630600083018461360c565b92915050565b600060c08201905061364b600083018961307c565b613658602083018861307c565b6136656040830187612e1f565b81810360608301526136778186612de6565b9050818103608083015261368b8185612de6565b905061369a60a0830184612ed7565b979650505050505050565b60006020820190506136ba6000830184612e1f565b92915050565b600080600080608085870312156136da576136d9612d22565b5b60006136e887828801612d4d565b945050602085013567ffffffffffffffff81111561370957613708612d27565b5b61371587828801613339565b935050604085013567ffffffffffffffff81111561373657613735612d27565b5b61374287828801613339565b925050606085013567ffffffffffffffff81111561376357613762612d27565b5b61376f87828801613339565b91505092959194509250565b7f566f74696e672073657373696f6e206861736e27742073746172746564000000600082015250565b60006137b1601d83612d9a565b91506137bc8261377b565b602082019050919050565b600060208201905081810360008301526137e0816137a4565b9050919050565b7f566f746572206e6f7420617070726f7665640000000000000000000000000000600082015250565b600061381d601283612d9a565b9150613828826137e7565b602082019050919050565b6000602082019050818103600083015261384c81613810565b9050919050565b7f596f75206861766520616c726561647920766f74656400000000000000000000600082015250565b6000613889601683612d9a565b915061389482613853565b602082019050919050565b600060208201905081810360008301526138b88161387c565b9050919050565b7f496e76616c69642070726f706f73616c00000000000000000000000000000000600082015250565b60006138f5601083612d9a565b9150613900826138bf565b602082019050919050565b60006020820190508181036000830152613924816138e8565b9050919050565b7f50726f706f73616c206e6f7420617070726f7665640000000000000000000000600082015250565b6000613961601583612d9a565b915061396c8261392b565b602082019050919050565b6000602082019050818103600083015261399081613954565b9050919050565b7f4e487b7100000000000000000000000000000000000000000000000000000000600052601160045260246000fd5b60006139d182612d2c565b91507fffffffffffffffffffffffffffffffffffffffffffffffffffffffffffffffff8203613a0357613a02613997565b5b600182019050919050565b6000604082019050613a236000830185612e60565b613a306020830184612e1f565b9392505050565b7f4e487b7100000000000000000000000000000000000000000000000000000000600052602260045260246000fd5b60006002820490506001821680613a7e57607f821691505b602082108103613a9157613a90613a37565b5b50919050565b7f4f6e6c792061646d696e206f72206f776e65722063616e20706572666f726d2060008201527f7468697320616374696f6e000000000000000000000000000000000000000000602082015250565b6000613af3602b83612d9a565b9150613afe82613a97565b604082019050919050565b60006020820190508181036000830152613b2281613ae6565b9050919050565b6000604082019050613b3e6000830185612e1f565b613b4b6020830184612ed7565b9392505050565b7f43616e27742073746172742070726f706f73616c20726567697374726174696f60008201527f6e206e6f77000000000000000000000000000000000000000000000000000000602082015250565b6000613bae602583612d9a565b9150613bb982613b52565b604082019050919050565b60006020820190508181036000830152613bdd81613ba1565b9050919050565b6000604082019050613bf9600083018561360c565b613c06602083018461360c565b9392505050565b7f43616e27742074616c6c7920766f746573206265666f726520766f74696e672060008201527f73657373696f6e20697320656e64656400000000000000000000000000000000602082015250565b6000613c69603083612d9a565b9150613c7482613c0d565b604082019050919050565b60006020820190508181036000830152613c9881613c5c565b9050919050565b7f4f6e6c79206f776e65722063616e20706572666f726d2074686973206163746960008201527f6f6e000000000000000000000000000000000000000000000000000000000000602082015250565b6000613cfb602283612d9a565b9150613d0682613c9f565b604082019050919050565b60006020820190508181036000830152613d2a81613cee565b9050919050565b6000604082019050613d466000830185612e60565b613d53602083018461307c565b9392505050565b7f566f746572206e6f742072656769737465726564000000000000000000000000600082015250565b6000613d90601483612d9a565b9150613d9b82613d5a565b602082019050919050565b60006020820190508181036000830152613dbf81613d83565b9050919050565b6000604082019050613ddb6000830185612e60565b613de86020830184612ed7565b9392505050565b7f4e487b7100000000000000000000000000000000000000000000000000000000600052603260045260246000fd5b60008190508160005260206000209050919050565b60006020601f8301049050919050565b600082821b905092915050565b600060088302613e807fffffffffffffffffffffffffffffffffffffffffffffffffffffffffffffffff82613e43565b613e8a8683613e43565b95508019841693508086168417925050509392505050565b6000819050919050565b6000613ec7613ec2613ebd84612d2c565b613ea2565b612d2c565b9050919050565b6000819050919050565b613ee183613eac565b613ef5613eed82613ece565b848454613e50565b825550505050565b600090565b613f0a613efd565b613f15818484613ed8565b505050565b5b81811015613f3957613f2e600082613f02565b600181019050613f1b565b5050565b601f821115613f7e57613f4f81613e1e565b613f5884613e33565b81016020851015613f67578190505b613f7b613f7385613e33565b830182613f1a565b50505b505050565b600082821c905092915050565b6000613fa160001984600802613f83565b1980831691505092915050565b6000613fba8383613f90565b9150826002028217905092915050565b613fd382612d8f565b67ffffffffffffffff811115613fec57613feb61323c565b5b613ff68254613a66565b614001828285613f3d565b600060209050601f8311600181146140345760008415614022578287015190505b61402c8582613fae565b865550614094565b601f19841661404286613e1e565b60005b8281101561406a57848901518255600182019150602085019450602081019050614045565b868310156140875784890151614083601f891682613f90565b8355505b6001600288020188555050505b505050505050565b7f566f74657220726567697374726174696f6e206973206e6f74206f70656e0000600082015250565b60006140d2601e83612d9a565b91506140dd8261409c565b602082019050919050565b60006020820190508181036000830152614101816140c5565b9050919050565b7f566f74657220616c726561647920726567697374657265640000000000000000600082015250565b600061413e601883612d9a565b915061414982614108565b602082019050919050565b6000602082019050818103600083015261416d81614131565b9050919050565b7f50726f706f73616c20726567697374726174696f6e206973206e6f74206f706560008201527f6e00000000000000000000000000000000000000000000000000000000000000602082015250565b60006141d0602183612d9a565b91506141db82614174565b604082019050919050565b600060208201905081810360008301526141ff816141c3565b9050919050565b7f566f7465732068617665206e6f74206265656e2074616c6c6965642079657400600082015250565b600061423c601f83612d9a565b915061424782614206565b602082019050919050565b6000602082019050818103600083015261426b8161422f565b9050919050565b7f50726f706f73616c20726567697374726174696f6e206973206e6f7420696e2060008201527f70726f6772657373000000000000000000000000000000000000000000000000602082015250565b60006142ce602883612d9a565b91506142d982614272565b604082019050919050565b600060208201905081810360008301526142fd816142c1565b9050919050565b7f43616e277420737461727420766f74696e672073657373696f6e206e6f770000600082015250565b600061433a601e83612d9a565b915061434582614304565b602082019050919050565b600060208201905081810360008301526143698161432d565b9050919050565b7f4e6577206f776e657220697320746865207a65726f2061646472657373000000600082015250565b60006143a6601d83612d9a565b91506143b182614370565b602082019050919050565b600060208201905081810360008301526143d581614399565b905091905056fea2646970667358221220b60674c12911a5c0a086cdd44eeefc422bc15d697bedfae7b88460c697bee0c864736f6c63430008180033",
  "linkReferences": {},
  "deployedLinkReferences": {}
}