{
  "_format": "hh-sol-artifact-1",
  "contractName": "VotingPlatform",
  "sourceName": "contracts/Voting.sol",
  "abi": [
    {
      "inputs": [],
      "stateMutability": "nonpayable",
      "type": "constructor"
    },
    {
      "anonymous": false,
      "inputs": [
        {
          "indexed": true,
          "internalType": "address",
          "name": "admin",
          "type": "address"
        },
        {
          "indexed": false,
          "internalType": "bool",
          "name": "status",
          "type": "bool"
        }
      ],
      "name": "AdminStatusChanged",
      "type": "event"
    },
    {
      "anonymous": false,
      "inputs": [
        {
          "indexed": true,
          "internalType": "string",
          "name": "electionId",
          "type": "string"
        },
        {
          "indexed": false,
          "internalType": "address",
          "name": "creator",
          "type": "address"
        },
        {
          "indexed": false,
          "internalType": "string",
          "name": "title",
          "type": "string"
        }
      ],
      "name": "ElectionCreated",
      "type": "event"
    },
    {
      "anonymous": false,
      "inputs": [
        {
          "indexed": true,
          "internalType": "string",
          "name": "electionId",
          "type": "string"
        },
        {
          "indexed": false,
          "internalType": "string",
          "name": "winningCandidateId",
          "type": "string"
        },
        {
          "indexed": false,
          "internalType": "uint256",
          "name": "winningVoteCount",
          "type": "uint256"
        }
      ],
      "name": "ElectionResultsTallied",
      "type": "event"
    },
    {
      "anonymous": false,
      "inputs": [
        {
          "indexed": true,
          "internalType": "string",
          "name": "electionId",
          "type": "string"
        },
        {
          "indexed": false,
          "internalType": "bool",
          "name": "isActive",
          "type": "bool"
        }
      ],
      "name": "ElectionStatusChanged",
      "type": "event"
    },
    {
      "anonymous": false,
      "inputs": [
        {
          "indexed": true,
          "internalType": "address",
          "name": "previousOwner",
          "type": "address"
        },
        {
          "indexed": true,
          "internalType": "address",
          "name": "newOwner",
          "type": "address"
        }
      ],
      "name": "OwnershipTransferred",
      "type": "event"
    },
    {
      "anonymous": false,
      "inputs": [
        {
          "indexed": true,
          "internalType": "address",
          "name": "userAddress",
          "type": "address"
        },
        {
          "indexed": false,
          "internalType": "string",
          "name": "userId",
          "type": "string"
        }
      ],
      "name": "UserRegistered",
      "type": "event"
    },
    {
      "anonymous": false,
      "inputs": [
        {
          "indexed": true,
          "internalType": "string",
          "name": "electionId",
          "type": "string"
        },
        {
          "indexed": false,
          "internalType": "string",
          "name": "candidateId",
          "type": "string"
        }
      ],
      "name": "VoteCast",
      "type": "event"
    },
    {
      "inputs": [
        {
          "internalType": "uint256",
          "name": "",
          "type": "uint256"
        }
      ],
      "name": "activeElections",
      "outputs": [
        {
          "internalType": "string",
          "name": "",
          "type": "string"
        }
      ],
      "stateMutability": "view",
      "type": "function"
    },
    {
      "inputs": [
        {
          "internalType": "address",
          "name": "",
          "type": "address"
        }
      ],
      "name": "admins",
      "outputs": [
        {
          "internalType": "bool",
          "name": "",
          "type": "bool"
        }
      ],
      "stateMutability": "view",
      "type": "function"
    },
    {
      "inputs": [
        {
          "internalType": "string",
          "name": "_electionId",
          "type": "string"
        },
        {
          "internalType": "string",
          "name": "_candidateId",
          "type": "string"
        }
      ],
      "name": "castVote",
      "outputs": [],
      "stateMutability": "nonpayable",
      "type": "function"
    },
    {
      "inputs": [
        {
          "internalType": "string",
          "name": "_electionId",
          "type": "string"
        },
        {
          "internalType": "string",
          "name": "_title",
          "type": "string"
        },
        {
          "internalType": "uint256",
          "name": "_startTime",
          "type": "uint256"
        },
        {
          "internalType": "uint256",
          "name": "_endTime",
          "type": "uint256"
        },
        {
          "internalType": "string[]",
          "name": "_candidateIds",
          "type": "string[]"
        }
      ],
      "name": "createElection",
      "outputs": [],
      "stateMutability": "nonpayable",
      "type": "function"
    },
    {
      "inputs": [],
      "name": "getActiveElectionsCount",
      "outputs": [
        {
          "internalType": "uint256",
          "name": "",
          "type": "uint256"
        }
      ],
      "stateMutability": "view",
      "type": "function"
    },
    {
      "inputs": [],
      "name": "getAllActiveElections",
      "outputs": [
        {
          "internalType": "string[]",
          "name": "",
          "type": "string[]"
        }
      ],
      "stateMutability": "view",
      "type": "function"
    },
    {
      "inputs": [
        {
          "internalType": "string",
          "name": "_electionId",
          "type": "string"
        },
        {
          "internalType": "string",
          "name": "_candidateId",
          "type": "string"
        }
      ],
      "name": "getCandidateVotes",
      "outputs": [
        {
          "internalType": "uint256",
          "name": "",
          "type": "uint256"
        }
      ],
      "stateMutability": "view",
      "type": "function"
    },
    {
      "inputs": [
        {
          "internalType": "string",
          "name": "_electionId",
          "type": "string"
        }
      ],
      "name": "getElectionDetails",
      "outputs": [
        {
          "internalType": "address",
          "name": "creator",
          "type": "address"
        },
        {
          "internalType": "string",
          "name": "title",
          "type": "string"
        },
        {
          "internalType": "uint256",
          "name": "startTime",
          "type": "uint256"
        },
        {
          "internalType": "uint256",
          "name": "endTime",
          "type": "uint256"
        },
        {
          "internalType": "bool",
          "name": "isActive",
          "type": "bool"
        },
        {
          "internalType": "uint256",
          "name": "totalVotes",
          "type": "uint256"
        },
        {
          "internalType": "string[]",
          "name": "candidateIds",
          "type": "string[]"
        },
        {
          "internalType": "string",
          "name": "winningCandidateId",
          "type": "string"
        },
        {
          "internalType": "bool",
          "name": "resultsTallied",
          "type": "bool"
        }
      ],
      "stateMutability": "view",
      "type": "function"
    },
    {
      "inputs": [
        {
          "internalType": "string",
          "name": "_electionId",
          "type": "string"
        }
      ],
      "name": "getWinningCandidate",
      "outputs": [
        {
          "internalType": "string",
          "name": "winningCandidateId",
          "type": "string"
        },
        {
          "internalType": "uint256",
          "name": "winningVoteCount",
          "type": "uint256"
        }
      ],
      "stateMutability": "view",
      "type": "function"
    },
    {
      "inputs": [
        {
          "internalType": "string",
          "name": "_electionId",
          "type": "string"
        },
        {
          "internalType": "address",
          "name": "_voter",
          "type": "address"
        }
      ],
      "name": "hasUserVoted",
      "outputs": [
        {
          "internalType": "bool",
          "name": "",
          "type": "bool"
        }
      ],
      "stateMutability": "view",
      "type": "function"
    },
    {
      "inputs": [
        {
          "internalType": "string",
          "name": "_electionId",
          "type": "string"
        }
      ],
      "name": "isElectionActive",
      "outputs": [
        {
          "internalType": "bool",
          "name": "",
          "type": "bool"
        }
      ],
      "stateMutability": "view",
      "type": "function"
    },
    {
      "inputs": [],
      "name": "owner",
      "outputs": [
        {
          "internalType": "address",
          "name": "",
          "type": "address"
        }
      ],
      "stateMutability": "view",
      "type": "function"
    },
    {
      "inputs": [
        {
          "internalType": "string",
          "name": "_userId",
          "type": "string"
        }
      ],
      "name": "registerUser",
      "outputs": [],
      "stateMutability": "nonpayable",
      "type": "function"
    },
    {
      "inputs": [
        {
          "internalType": "address",
          "name": "_adminAddress",
          "type": "address"
        },
        {
          "internalType": "bool",
          "name": "_isAdmin",
          "type": "bool"
        }
      ],
      "name": "setAdmin",
      "outputs": [],
      "stateMutability": "nonpayable",
      "type": "function"
    },
    {
      "inputs": [
        {
          "internalType": "string",
          "name": "_electionId",
          "type": "string"
        }
      ],
      "name": "tallyElectionResults",
      "outputs": [],
      "stateMutability": "nonpayable",
      "type": "function"
    },
    {
      "inputs": [
        {
          "internalType": "address",
          "name": "newOwner",
          "type": "address"
        }
      ],
      "name": "transferOwnership",
      "outputs": [],
      "stateMutability": "nonpayable",
      "type": "function"
    },
    {
      "inputs": [
        {
          "internalType": "string",
          "name": "_electionId",
          "type": "string"
        },
        {
          "internalType": "string",
          "name": "_newTitle",
          "type": "string"
        },
        {
          "internalType": "uint256",
          "name": "_newStartTime",
          "type": "uint256"
        },
        {
          "internalType": "uint256",
          "name": "_newEndTime",
          "type": "uint256"
        },
        {
          "internalType": "string[]",
          "name": "_newCandidateIds",
          "type": "string[]"
        }
      ],
      "name": "updateElection",
      "outputs": [],
      "stateMutability": "nonpayable",
      "type": "function"
    },
    {
      "inputs": [
        {
          "internalType": "address",
          "name": "",
          "type": "address"
        }
      ],
      "name": "voters",
      "outputs": [
        {
          "internalType": "bool",
          "name": "isRegistered",
          "type": "bool"
        },
        {
          "internalType": "string",
          "name": "userId",
          "type": "string"
        }
      ],
      "stateMutability": "view",
      "type": "function"
    }
  ],
  "bytecode": "0x608060405234801561001057600080fd5b50336000806101000a81548173ffffffffffffffffffffffffffffffffffffffff021916908373ffffffffffffffffffffffffffffffffffffffff1602179055506001600460003373ffffffffffffffffffffffffffffffffffffffff1673ffffffffffffffffffffffffffffffffffffffff16815260200190815260200160002060006101000a81548160ff0219169083151502179055506132fc806100b86000396000f3fe608060405234801561001057600080fd5b50600436106101165760003560e01c806391223356116100a2578063b7ff50fc11610071578063b7ff50fc1461030d578063c479fc911461033d578063d3f7655b14610359578063f2fde38b14610377578063f49105a71461039357610116565b8063912233561461026a578063928cb52e14610286578063970222c9146102be578063a3ec138d146102dc57610116565b8063494c8d52116100e9578063494c8d52146101c85780634b0bddd2146101f8578063704f1b941461021457806377de959f146102305780638da5cb5b1461024c57610116565b80631215872a1461011b57806340284753146101375780634149738514610168578063429b62e514610198575b600080fd5b61013560048036038101906101309190611f9a565b6103c3565b005b610151600480360381019061014c9190611f9a565b6106fb565b60405161015f92919061207b565b60405180910390f35b610182600480360381019061017d9190612109565b610829565b60405161018f9190612180565b60405180910390f35b6101b260048036038101906101ad919061219b565b61089f565b6040516101bf9190612180565b60405180910390f35b6101e260048036038101906101dd91906121f4565b6108bf565b6040516101ef9190612221565b60405180910390f35b610212600480360381019061020d919061226f565b61096b565b005b61022e60048036038101906102299190611f9a565b610aa2565b005b61024a60048036038101906102459190612395565b610bf6565b005b610254610e83565b6040516102619190612473565b60405180910390f35b610284600480360381019061027f9190612395565b610ea7565b005b6102a0600480360381019061029b9190611f9a565b6111be565b6040516102b59998979695949392919061259a565b60405180910390f35b6102c661145d565b6040516102d3919061263c565b60405180910390f35b6102f660048036038101906102f1919061219b565b611536565b60405161030492919061265e565b60405180910390f35b6103276004803603810190610322919061268e565b6115ef565b6040516103349190612706565b60405180910390f35b6103576004803603810190610352919061268e565b611637565b005b6103616119cb565b60405161036e9190612706565b60405180910390f35b610391600480360381019061038c919061219b565b6119d8565b005b6103ad60048036038101906103a89190611f9a565b611b92565b6040516103ba9190612180565b60405180910390f35b600460003373ffffffffffffffffffffffffffffffffffffffff1673ffffffffffffffffffffffffffffffffffffffff16815260200190815260200160002060009054906101000a900460ff1680610466575060008054906101000a900473ffffffffffffffffffffffffffffffffffffffff1673ffffffffffffffffffffffffffffffffffffffff163373ffffffffffffffffffffffffffffffffffffffff16145b6104a5576040517f08c379a000000000000000000000000000000000000000000000000000000000815260040161049c9061276d565b60405180910390fd5b60006002826040516104b791906127c9565b9081526020016040518091039020905080600a0160009054906101000a900460ff1615610519576040517f08c379a00000000000000000000000000000000000000000000000000000000081526004016105109061282c565b60405180910390fd5b8060040154421161055f576040517f08c379a000000000000000000000000000000000000000000000000000000000815260040161055690612898565b60405180910390fd5b60008060405180602001604052806000815250905060005b836007018054905081101561067657600084600701828154811061059e5761059d6128b8565b5b9060005260206000200180546105b390612916565b80601f01602080910402602001604051908101604052809291908181526020018280546105df90612916565b801561062c5780601f106106015761010080835404028352916020019161062c565b820191906000526020600020905b81548152906001019060200180831161060f57829003601f168201915b505050505090506000856006018260405161064791906127c9565b908152602001604051809103902054905084811115610667578094508193505b50508080600101915050610577565b50808360090190816106889190612af3565b50600183600a0160006101000a81548160ff021916908315150217905550836040516106b491906127c9565b60405180910390207f61ffd826e5224254d26f0a29fff2948ad3c9fc79104a435c775d026cd5e57ac082846040516106ed92919061207b565b60405180910390a250505050565b606060008060028460405161071091906127c9565b9081526020016040518091039020905080600a0160009054906101000a900460ff16610771576040517f08c379a000000000000000000000000000000000000000000000000000000000815260040161076890612c11565b60405180910390fd5b80600901805461078090612916565b80601f01602080910402602001604051908101604052809291908181526020018280546107ac90612916565b80156107f95780601f106107ce576101008083540402835291602001916107f9565b820191906000526020600020905b8154815290600101906020018083116107dc57829003601f168201915b50505050509250806006018360405161081291906127c9565b908152602001604051809103902054915050915091565b6000600160008373ffffffffffffffffffffffffffffffffffffffff1673ffffffffffffffffffffffffffffffffffffffff1681526020019081526020016000206001018360405161087b91906127c9565b908152602001604051809103902060009054906101000a900460ff16905092915050565b60046020528060005260406000206000915054906101000a900460ff1681565b600381815481106108cf57600080fd5b9060005260206000200160009150905080546108ea90612916565b80601f016020809104026020016040519081016040528092919081815260200182805461091690612916565b80156109635780601f1061093857610100808354040283529160200191610963565b820191906000526020600020905b81548152906001019060200180831161094657829003601f168201915b505050505081565b60008054906101000a900473ffffffffffffffffffffffffffffffffffffffff1673ffffffffffffffffffffffffffffffffffffffff163373ffffffffffffffffffffffffffffffffffffffff16146109f9576040517f08c379a00000000000000000000000000000000000000000000000000000000081526004016109f090612c7d565b60405180910390fd5b80600460008473ffffffffffffffffffffffffffffffffffffffff1673ffffffffffffffffffffffffffffffffffffffff16815260200190815260200160002060006101000a81548160ff0219169083151502179055508173ffffffffffffffffffffffffffffffffffffffff167fc63c72d6995119c079ef24c02679d49838905c8e81df9e632011b914e6f592f682604051610a969190612180565b60405180910390a25050565b600160003373ffffffffffffffffffffffffffffffffffffffff1673ffffffffffffffffffffffffffffffffffffffff16815260200190815260200160002060000160009054906101000a900460ff1615610b32576040517f08c379a0000000000000000000000000000000000000000000000000000000008152600401610b2990612ce9565b60405180910390fd5b6000600160003373ffffffffffffffffffffffffffffffffffffffff1673ffffffffffffffffffffffffffffffffffffffff168152602001908152602001600020905060018160000160006101000a81548160ff02191690831515021790555081816002019081610ba39190612af3565b503373ffffffffffffffffffffffffffffffffffffffff167f48cac28ad4dc618e15f4c2dd5e97751182f166de97b25618318b2112aa951a2f83604051610bea9190612221565b60405180910390a25050565b600160003373ffffffffffffffffffffffffffffffffffffffff1673ffffffffffffffffffffffffffffffffffffffff16815260200190815260200160002060000160009054906101000a900460ff16610c85576040517f08c379a0000000000000000000000000000000000000000000000000000000008152600401610c7c90612d55565b60405180910390fd5b428311610cc7576040517f08c379a0000000000000000000000000000000000000000000000000000000008152600401610cbe90612dc1565b60405180910390fd5b828211610d09576040517f08c379a0000000000000000000000000000000000000000000000000000000008152600401610d0090612e53565b60405180910390fd5b6000600286604051610d1b91906127c9565b9081526020016040518091039020905085816000019081610d3c9190612af3565b50338160010160006101000a81548173ffffffffffffffffffffffffffffffffffffffff021916908373ffffffffffffffffffffffffffffffffffffffff16021790555084816002019081610d919190612af3565b5083816003018190555082816004018190555060018160050160006101000a81548160ff02191690831515021790555081816007019080519060200190610dd9929190611d45565b50600081600a0160006101000a81548160ff021916908315150217905550600386908060018154018082558091505060019003906000526020600020016000909190919091509081610e2b9190612af3565b5085604051610e3a91906127c9565b60405180910390207ffed5b1287d3e9d469098cce366e574d93f90404841e27b8b4d8342266640b5fb3387604051610e73929190612e73565b60405180910390a2505050505050565b60008054906101000a900473ffffffffffffffffffffffffffffffffffffffff1681565b6000600286604051610eb991906127c9565b908152602001604051809103902090508060010160009054906101000a900473ffffffffffffffffffffffffffffffffffffffff1673ffffffffffffffffffffffffffffffffffffffff163373ffffffffffffffffffffffffffffffffffffffff161480610f705750600460003373ffffffffffffffffffffffffffffffffffffffff1673ffffffffffffffffffffffffffffffffffffffff16815260200190815260200160002060009054906101000a900460ff165b610faf576040517f08c379a0000000000000000000000000000000000000000000000000000000008152600401610fa690612f15565b60405180910390fd5b80600301544210610ff5576040517f08c379a0000000000000000000000000000000000000000000000000000000008152600401610fec90612fa7565b60405180910390fd5b428411611037576040517f08c379a000000000000000000000000000000000000000000000000000000000815260040161102e90612dc1565b60405180910390fd5b838311611079576040517f08c379a000000000000000000000000000000000000000000000000000000000815260040161107090612e53565b60405180910390fd5b8481600201908161108a9190612af3565b508381600301819055508281600401819055508060070160006110ad9190611d9e565b818160070190805190602001906110c5929190611d45565b5060008160080181905550600081600a0160006101000a81548160ff0219169083151502179055506040518060200160405280600081525081600901908161110d9190612af3565b5060005b825181101561116757600082600601848381518110611133576111326128b8565b5b602002602001015160405161114891906127c9565b9081526020016040518091039020819055508080600101915050611111565b508560405161117691906127c9565b60405180910390207f02bb9c550868a1621adaa2adbc8ceef17a3dbdc264f7e3a201c80d76a08431f460016040516111ae9190612180565b60405180910390a2505050505050565b6000606060008060008060608060008060028b6040516111de91906127c9565b908152602001604051809103902090508060010160009054906101000a900473ffffffffffffffffffffffffffffffffffffffff1681600201826003015483600401548460050160009054906101000a900460ff168560080154866007018760090188600a0160009054906101000a900460ff1687805461125e90612916565b80601f016020809104026020016040519081016040528092919081815260200182805461128a90612916565b80156112d75780601f106112ac576101008083540402835291602001916112d7565b820191906000526020600020905b8154815290600101906020018083116112ba57829003601f168201915b5050505050975082805480602002602001604051908101604052809291908181526020016000905b828210156113ab57838290600052602060002001805461131e90612916565b80601f016020809104026020016040519081016040528092919081815260200182805461134a90612916565b80156113975780601f1061136c57610100808354040283529160200191611397565b820191906000526020600020905b81548152906001019060200180831161137a57829003601f168201915b5050505050815260200190600101906112ff565b5050505092508180546113bd90612916565b80601f01602080910402602001604051908101604052809291908181526020018280546113e990612916565b80156114365780601f1061140b57610100808354040283529160200191611436565b820191906000526020600020905b81548152906001019060200180831161141957829003601f168201915b50505050509150995099509950995099509950995099509950509193959799909294969850565b60606003805480602002602001604051908101604052809291908181526020016000905b8282101561152d5783829060005260206000200180546114a090612916565b80601f01602080910402602001604051908101604052809291908181526020018280546114cc90612916565b80156115195780601f106114ee57610100808354040283529160200191611519565b820191906000526020600020905b8154815290600101906020018083116114fc57829003601f168201915b505050505081526020019060010190611481565b50505050905090565b60016020528060005260406000206000915090508060000160009054906101000a900460ff169080600201805461156c90612916565b80601f016020809104026020016040519081016040528092919081815260200182805461159890612916565b80156115e55780601f106115ba576101008083540402835291602001916115e5565b820191906000526020600020905b8154815290600101906020018083116115c857829003601f168201915b5050505050905082565b600060028360405161160191906127c9565b90815260200160405180910390206006018260405161162091906127c9565b908152602001604051809103902054905092915050565b600160003373ffffffffffffffffffffffffffffffffffffffff1673ffffffffffffffffffffffffffffffffffffffff16815260200190815260200160002060000160009054906101000a900460ff166116c6576040517f08c379a00000000000000000000000000000000000000000000000000000000081526004016116bd90612d55565b60405180910390fd5b600160003373ffffffffffffffffffffffffffffffffffffffff1673ffffffffffffffffffffffffffffffffffffffff1681526020019081526020016000206001018260405161171691906127c9565b908152602001604051809103902060009054906101000a900460ff1615611772576040517f08c379a000000000000000000000000000000000000000000000000000000000815260040161176990613013565b60405180910390fd5b61177b82611b92565b6117ba576040517f08c379a00000000000000000000000000000000000000000000000000000000081526004016117b19061307f565b60405180910390fd5b6117c48282611bef565b611803576040517f08c379a00000000000000000000000000000000000000000000000000000000081526004016117fa906130eb565b60405180910390fd5b600060028360405161181591906127c9565b90815260200160405180910390209050806003015442101561186c576040517f08c379a000000000000000000000000000000000000000000000000000000000815260040161186390613157565b60405180910390fd5b80600401544211156118b3576040517f08c379a00000000000000000000000000000000000000000000000000000000081526004016118aa906131c3565b60405180910390fd5b60018060003373ffffffffffffffffffffffffffffffffffffffff1673ffffffffffffffffffffffffffffffffffffffff1681526020019081526020016000206001018460405161190491906127c9565b908152602001604051809103902060006101000a81548160ff021916908315150217905550806006018260405161193b91906127c9565b9081526020016040518091039020600081548092919061195a90613212565b919050555080600801600081548092919061197490613212565b91905055508260405161198791906127c9565b60405180910390207f137ad23732468494166ec34d1367743690ffa17f6ceac8429cba8fc35d088b6e836040516119be9190612221565b60405180910390a2505050565b6000600380549050905090565b60008054906101000a900473ffffffffffffffffffffffffffffffffffffffff1673ffffffffffffffffffffffffffffffffffffffff163373ffffffffffffffffffffffffffffffffffffffff1614611a66576040517f08c379a0000000000000000000000000000000000000000000000000000000008152600401611a5d90612c7d565b60405180910390fd5b600073ffffffffffffffffffffffffffffffffffffffff168173ffffffffffffffffffffffffffffffffffffffff1603611ad5576040517f08c379a0000000000000000000000000000000000000000000000000000000008152600401611acc906132a6565b60405180910390fd5b8073ffffffffffffffffffffffffffffffffffffffff1660008054906101000a900473ffffffffffffffffffffffffffffffffffffffff1673ffffffffffffffffffffffffffffffffffffffff167f8be0079c531659141344cd1fd0a4f28419497f9722a3daafe3b4186f6b6457e060405160405180910390a3806000806101000a81548173ffffffffffffffffffffffffffffffffffffffff021916908373ffffffffffffffffffffffffffffffffffffffff16021790555050565b600080600283604051611ba591906127c9565b908152602001604051809103902090508060050160009054906101000a900460ff168015611bd7575080600301544210155b8015611be7575080600401544211155b915050919050565b600080600284604051611c0291906127c9565b9081526020016040518091039020600701805480602002602001604051908101604052809291908181526020016000905b82821015611cdf578382906000526020600020018054611c5290612916565b80601f0160208091040260200160405190810160405280929190818152602001828054611c7e90612916565b8015611ccb5780601f10611ca057610100808354040283529160200191611ccb565b820191906000526020600020905b815481529060010190602001808311611cae57829003601f168201915b505050505081526020019060010190611c33565b50505050905060005b8151811015611d38578380519060200120828281518110611d0c57611d0b6128b8565b5b60200260200101518051906020012003611d2b57600192505050611d3f565b8080600101915050611ce8565b5060009150505b92915050565b828054828255906000526020600020908101928215611d8d579160200282015b82811115611d8c578251829081611d7c9190612af3565b5091602001919060010190611d65565b5b509050611d9a9190611dbf565b5090565b5080546000825590600052602060002090810190611dbc9190611dbf565b50565b5b80821115611ddf5760008181611dd69190611de3565b50600101611dc0565b5090565b508054611def90612916565b6000825580601f10611e015750611e20565b601f016020900490600052602060002090810190611e1f9190611e23565b5b50565b5b80821115611e3c576000816000905550600101611e24565b5090565b6000604051905090565b600080fd5b600080fd5b600080fd5b600080fd5b6000601f19601f8301169050919050565b7f4e487b7100000000000000000000000000000000000000000000000000000000600052604160045260246000fd5b611ea782611e5e565b810181811067ffffffffffffffff82111715611ec657611ec5611e6f565b5b80604052505050565b6000611ed9611e40565b9050611ee58282611e9e565b919050565b600067ffffffffffffffff821115611f0557611f04611e6f565b5b611f0e82611e5e565b9050602081019050919050565b82818337600083830152505050565b6000611f3d611f3884611eea565b611ecf565b905082815260208101848484011115611f5957611f58611e59565b5b611f64848285611f1b565b509392505050565b600082601f830112611f8157611f80611e54565b5b8135611f91848260208601611f2a565b91505092915050565b600060208284031215611fb057611faf611e4a565b5b600082013567ffffffffffffffff811115611fce57611fcd611e4f565b5b611fda84828501611f6c565b91505092915050565b600081519050919050565b600082825260208201905092915050565b60005b8381101561201d578082015181840152602081019050612002565b60008484015250505050565b600061203482611fe3565b61203e8185611fee565b935061204e818560208601611fff565b61205781611e5e565b840191505092915050565b6000819050919050565b61207581612062565b82525050565b600060408201905081810360008301526120958185612029565b90506120a4602083018461206c565b9392505050565b600073ffffffffffffffffffffffffffffffffffffffff82169050919050565b60006120d6826120ab565b9050919050565b6120e6816120cb565b81146120f157600080fd5b50565b600081359050612103816120dd565b92915050565b600080604083850312156121205761211f611e4a565b5b600083013567ffffffffffffffff81111561213e5761213d611e4f565b5b61214a85828601611f6c565b925050602061215b858286016120f4565b9150509250929050565b60008115159050919050565b61217a81612165565b82525050565b60006020820190506121956000830184612171565b92915050565b6000602082840312156121b1576121b0611e4a565b5b60006121bf848285016120f4565b91505092915050565b6121d181612062565b81146121dc57600080fd5b50565b6000813590506121ee816121c8565b92915050565b60006020828403121561220a57612209611e4a565b5b6000612218848285016121df565b91505092915050565b6000602082019050818103600083015261223b8184612029565b905092915050565b61224c81612165565b811461225757600080fd5b50565b60008135905061226981612243565b92915050565b6000806040838503121561228657612285611e4a565b5b6000612294858286016120f4565b92505060206122a58582860161225a565b9150509250929050565b600067ffffffffffffffff8211156122ca576122c9611e6f565b5b602082029050602081019050919050565b600080fd5b60006122f36122ee846122af565b611ecf565b90508083825260208201905060208402830185811115612316576123156122db565b5b835b8181101561235d57803567ffffffffffffffff81111561233b5761233a611e54565b5b8086016123488982611f6c565b85526020850194505050602081019050612318565b5050509392505050565b600082601f83011261237c5761237b611e54565b5b813561238c8482602086016122e0565b91505092915050565b600080600080600060a086880312156123b1576123b0611e4a565b5b600086013567ffffffffffffffff8111156123cf576123ce611e4f565b5b6123db88828901611f6c565b955050602086013567ffffffffffffffff8111156123fc576123fb611e4f565b5b61240888828901611f6c565b9450506040612419888289016121df565b935050606061242a888289016121df565b925050608086013567ffffffffffffffff81111561244b5761244a611e4f565b5b61245788828901612367565b9150509295509295909350565b61246d816120cb565b82525050565b60006020820190506124886000830184612464565b92915050565b600081519050919050565b600082825260208201905092915050565b6000819050602082019050919050565b600082825260208201905092915050565b60006124d682611fe3565b6124e081856124ba565b93506124f0818560208601611fff565b6124f981611e5e565b840191505092915050565b600061251083836124cb565b905092915050565b6000602082019050919050565b60006125308261248e565b61253a8185612499565b93508360208202850161254c856124aa565b8060005b8581101561258857848403895281516125698582612504565b945061257483612518565b925060208a01995050600181019050612550565b50829750879550505050505092915050565b6000610120820190506125b0600083018c612464565b81810360208301526125c2818b612029565b90506125d1604083018a61206c565b6125de606083018961206c565b6125eb6080830188612171565b6125f860a083018761206c565b81810360c083015261260a8186612525565b905081810360e083015261261e8185612029565b905061262e610100830184612171565b9a9950505050505050505050565b600060208201905081810360008301526126568184612525565b905092915050565b60006040820190506126736000830185612171565b81810360208301526126858184612029565b90509392505050565b600080604083850312156126a5576126a4611e4a565b5b600083013567ffffffffffffffff8111156126c3576126c2611e4f565b5b6126cf85828601611f6c565b925050602083013567ffffffffffffffff8111156126f0576126ef611e4f565b5b6126fc85828601611f6c565b9150509250929050565b600060208201905061271b600083018461206c565b92915050565b7f4f6e6c792061646d696e2063616e2063616c6c20746869730000000000000000600082015250565b6000612757601883611fee565b915061276282612721565b602082019050919050565b600060208201905081810360008301526127868161274a565b9050919050565b600081905092915050565b60006127a382611fe3565b6127ad818561278d565b93506127bd818560208601611fff565b80840191505092915050565b60006127d58284612798565b915081905092915050565b7f526573756c747320616c72656164792074616c6c696564000000000000000000600082015250565b6000612816601783611fee565b9150612821826127e0565b602082019050919050565b6000602082019050818103600083015261284581612809565b9050919050565b7f456c656374696f6e206e6f7420656e6465642079657400000000000000000000600082015250565b6000612882601683611fee565b915061288d8261284c565b602082019050919050565b600060208201905081810360008301526128b181612875565b9050919050565b7f4e487b7100000000000000000000000000000000000000000000000000000000600052603260045260246000fd5b7f4e487b7100000000000000000000000000000000000000000000000000000000600052602260045260246000fd5b6000600282049050600182168061292e57607f821691505b602082108103612941576129406128e7565b5b50919050565b60008190508160005260206000209050919050565b60006020601f8301049050919050565b600082821b905092915050565b6000600883026129a97fffffffffffffffffffffffffffffffffffffffffffffffffffffffffffffffff8261296c565b6129b3868361296c565b95508019841693508086168417925050509392505050565b6000819050919050565b60006129f06129eb6129e684612062565b6129cb565b612062565b9050919050565b6000819050919050565b612a0a836129d5565b612a1e612a16826129f7565b848454612979565b825550505050565b600090565b612a33612a26565b612a3e818484612a01565b505050565b5b81811015612a6257612a57600082612a2b565b600181019050612a44565b5050565b601f821115612aa757612a7881612947565b612a818461295c565b81016020851015612a90578190505b612aa4612a9c8561295c565b830182612a43565b50505b505050565b600082821c905092915050565b6000612aca60001984600802612aac565b1980831691505092915050565b6000612ae38383612ab9565b9150826002028217905092915050565b612afc82611fe3565b67ffffffffffffffff811115612b1557612b14611e6f565b5b612b1f8254612916565b612b2a828285612a66565b600060209050601f831160018114612b5d5760008415612b4b578287015190505b612b558582612ad7565b865550612bbd565b601f198416612b6b86612947565b60005b82811015612b9357848901518255600182019150602085019450602081019050612b6e565b86831015612bb05784890151612bac601f891682612ab9565b8355505b6001600288020188555050505b505050505050565b7f526573756c7473206e6f742074616c6c69656420796574000000000000000000600082015250565b6000612bfb601783611fee565b9150612c0682612bc5565b602082019050919050565b60006020820190508181036000830152612c2a81612bee565b9050919050565b7f4f6e6c79206f776e65722063616e2063616c6c20746869730000000000000000600082015250565b6000612c67601883611fee565b9150612c7282612c31565b602082019050919050565b60006020820190508181036000830152612c9681612c5a565b9050919050565b7f5573657220616c72656164792072656769737465726564000000000000000000600082015250565b6000612cd3601783611fee565b9150612cde82612c9d565b602082019050919050565b60006020820190508181036000830152612d0281612cc6565b9050919050565b7f55736572206e6f74207265676973746572656400000000000000000000000000600082015250565b6000612d3f601383611fee565b9150612d4a82612d09565b602082019050919050565b60006020820190508181036000830152612d6e81612d32565b9050919050565b7f53746172742074696d65206d75737420626520696e2066757475726500000000600082015250565b6000612dab601c83611fee565b9150612db682612d75565b602082019050919050565b60006020820190508181036000830152612dda81612d9e565b9050919050565b7f456e642074696d65206d7573742062652061667465722073746172742074696d60008201527f6500000000000000000000000000000000000000000000000000000000000000602082015250565b6000612e3d602183611fee565b9150612e4882612de1565b604082019050919050565b60006020820190508181036000830152612e6c81612e30565b9050919050565b6000604082019050612e886000830185612464565b8181036020830152612e9a8184612029565b90509392505050565b7f4f6e6c7920656c656374696f6e2063726561746f72206f722061646d696e206360008201527f616e207570646174650000000000000000000000000000000000000000000000602082015250565b6000612eff602983611fee565b9150612f0a82612ea3565b604082019050919050565b60006020820190508181036000830152612f2e81612ef2565b9050919050565b7f43616e6e6f742075706461746520616e20656c656374696f6e2074686174206860008201527f617320616c726561647920737461727465640000000000000000000000000000602082015250565b6000612f91603283611fee565b9150612f9c82612f35565b604082019050919050565b60006020820190508181036000830152612fc081612f84565b9050919050565b7f416c726561647920766f74656420696e207468697320656c656374696f6e0000600082015250565b6000612ffd601e83611fee565b915061300882612fc7565b602082019050919050565b6000602082019050818103600083015261302c81612ff0565b9050919050565b7f456c656374696f6e206973206e6f742061637469766500000000000000000000600082015250565b6000613069601683611fee565b915061307482613033565b602082019050919050565b600060208201905081810360008301526130988161305c565b9050919050565b7f496e76616c69642063616e646964617465000000000000000000000000000000600082015250565b60006130d5601183611fee565b91506130e08261309f565b602082019050919050565b60006020820190508181036000830152613104816130c8565b9050919050565b7f456c656374696f6e20686173206e6f7420737461727465640000000000000000600082015250565b6000613141601883611fee565b915061314c8261310b565b602082019050919050565b6000602082019050818103600083015261317081613134565b9050919050565b7f456c656374696f6e2068617320656e6465640000000000000000000000000000600082015250565b60006131ad601283611fee565b91506131b882613177565b602082019050919050565b600060208201905081810360008301526131dc816131a0565b9050919050565b7f4e487b7100000000000000000000000000000000000000000000000000000000600052601160045260246000fd5b600061321d82612062565b91507fffffffffffffffffffffffffffffffffffffffffffffffffffffffffffffffff820361324f5761324e6131e3565b5b600182019050919050565b7f4e6577206f776e657220697320746865207a65726f2061646472657373000000600082015250565b6000613290601d83611fee565b915061329b8261325a565b602082019050919050565b600060208201905081810360008301526132bf81613283565b905091905056fea264697066735822122014debabbc3bcbfb45c48337a46e1e642cb2eb5a7952b779bd91dfccb678ac15264736f6c63430008180033",
  "linkReferences": {},
  "deployedLinkReferences": {}
}