{
  "_format": "hh-sol-artifact-1",
  "contractName": "VotingPlatform",
  "sourceName": "contracts/Voting.sol",
  "abi": [
    {
      "inputs": [],
      "stateMutability": "nonpayable",
      "type": "constructor"
    },
    {
      "anonymous": false,
      "inputs": [
        {
          "indexed": true,
          "internalType": "address",
          "name": "admin",
          "type": "address"
        },
        {
          "indexed": false,
          "internalType": "bool",
          "name": "status",
          "type": "bool"
        }
      ],
      "name": "AdminStatusChanged",
      "type": "event"
    },
    {
      "anonymous": false,
      "inputs": [
        {
          "indexed": true,
          "internalType": "string",
          "name": "electionId",
          "type": "string"
        },
        {
          "indexed": false,
          "internalType": "address",
          "name": "creator",
          "type": "address"
        },
        {
          "indexed": false,
          "internalType": "string",
          "name": "title",
          "type": "string"
        }
      ],
      "name": "ElectionCreated",
      "type": "event"
    },
    {
      "anonymous": false,
      "inputs": [
        {
          "indexed": true,
          "internalType": "string",
          "name": "electionId",
          "type": "string"
        },
        {
          "indexed": false,
          "internalType": "string",
          "name": "winningCandidateId",
          "type": "string"
        },
        {
          "indexed": false,
          "internalType": "uint256",
          "name": "winningVoteCount",
          "type": "uint256"
        }
      ],
      "name": "ElectionResultsTallied",
      "type": "event"
    },
    {
      "anonymous": false,
      "inputs": [
        {
          "indexed": true,
          "internalType": "string",
          "name": "electionId",
          "type": "string"
        },
        {
          "indexed": false,
          "internalType": "bool",
          "name": "isActive",
          "type": "bool"
        }
      ],
      "name": "ElectionStatusChanged",
      "type": "event"
    },
    {
      "anonymous": false,
      "inputs": [
        {
          "indexed": true,
          "internalType": "address",
          "name": "previousOwner",
          "type": "address"
        },
        {
          "indexed": true,
          "internalType": "address",
          "name": "newOwner",
          "type": "address"
        }
      ],
      "name": "OwnershipTransferred",
      "type": "event"
    },
    {
      "anonymous": false,
      "inputs": [
        {
          "indexed": true,
          "internalType": "address",
          "name": "userAddress",
          "type": "address"
        },
        {
          "indexed": false,
          "internalType": "string",
          "name": "userId",
          "type": "string"
        }
      ],
      "name": "UserRegistered",
      "type": "event"
    },
    {
      "anonymous": false,
      "inputs": [
        {
          "indexed": true,
          "internalType": "string",
          "name": "electionId",
          "type": "string"
        },
        {
          "indexed": false,
          "internalType": "string",
          "name": "candidateId",
          "type": "string"
        }
      ],
      "name": "VoteCast",
      "type": "event"
    },
    {
      "inputs": [
        {
          "internalType": "uint256",
          "name": "",
          "type": "uint256"
        }
      ],
      "name": "activeElections",
      "outputs": [
        {
          "internalType": "string",
          "name": "",
          "type": "string"
        }
      ],
      "stateMutability": "view",
      "type": "function"
    },
    {
      "inputs": [
        {
          "internalType": "address",
          "name": "",
          "type": "address"
        }
      ],
      "name": "admins",
      "outputs": [
        {
          "internalType": "bool",
          "name": "",
          "type": "bool"
        }
      ],
      "stateMutability": "view",
      "type": "function"
    },
    {
      "inputs": [
        {
          "internalType": "string",
          "name": "_electionId",
          "type": "string"
        },
        {
          "internalType": "string",
          "name": "_candidateId",
          "type": "string"
        }
      ],
      "name": "castVote",
      "outputs": [],
      "stateMutability": "nonpayable",
      "type": "function"
    },
    {
      "inputs": [
        {
          "internalType": "string",
          "name": "_electionId",
          "type": "string"
        },
        {
          "internalType": "string",
          "name": "_title",
          "type": "string"
        },
        {
          "internalType": "uint256",
          "name": "_startTime",
          "type": "uint256"
        },
        {
          "internalType": "uint256",
          "name": "_endTime",
          "type": "uint256"
        },
        {
          "internalType": "string[]",
          "name": "_candidateIds",
          "type": "string[]"
        }
      ],
      "name": "createElection",
      "outputs": [],
      "stateMutability": "nonpayable",
      "type": "function"
    },
    {
      "inputs": [],
      "name": "getActiveElectionsCount",
      "outputs": [
        {
          "internalType": "uint256",
          "name": "",
          "type": "uint256"
        }
      ],
      "stateMutability": "view",
      "type": "function"
    },
    {
      "inputs": [
        {
          "internalType": "string",
          "name": "_electionId",
          "type": "string"
        },
        {
          "internalType": "string",
          "name": "_candidateId",
          "type": "string"
        }
      ],
      "name": "getCandidateVotes",
      "outputs": [
        {
          "internalType": "uint256",
          "name": "",
          "type": "uint256"
        }
      ],
      "stateMutability": "view",
      "type": "function"
    },
    {
      "inputs": [
        {
          "internalType": "string",
          "name": "_electionId",
          "type": "string"
        }
      ],
      "name": "getElectionDetails",
      "outputs": [
        {
          "internalType": "address",
          "name": "creator",
          "type": "address"
        },
        {
          "internalType": "string",
          "name": "title",
          "type": "string"
        },
        {
          "internalType": "uint256",
          "name": "startTime",
          "type": "uint256"
        },
        {
          "internalType": "uint256",
          "name": "endTime",
          "type": "uint256"
        },
        {
          "internalType": "bool",
          "name": "isActive",
          "type": "bool"
        },
        {
          "internalType": "uint256",
          "name": "totalVotes",
          "type": "uint256"
        },
        {
          "internalType": "string[]",
          "name": "candidateIds",
          "type": "string[]"
        },
        {
          "internalType": "string",
          "name": "winningCandidateId",
          "type": "string"
        },
        {
          "internalType": "bool",
          "name": "resultsTallied",
          "type": "bool"
        }
      ],
      "stateMutability": "view",
      "type": "function"
    },
    {
      "inputs": [
        {
          "internalType": "string",
          "name": "_electionId",
          "type": "string"
        }
      ],
      "name": "getWinningCandidate",
      "outputs": [
        {
          "internalType": "string",
          "name": "winningCandidateId",
          "type": "string"
        },
        {
          "internalType": "uint256",
          "name": "winningVoteCount",
          "type": "uint256"
        }
      ],
      "stateMutability": "view",
      "type": "function"
    },
    {
      "inputs": [
        {
          "internalType": "string",
          "name": "_electionId",
          "type": "string"
        },
        {
          "internalType": "address",
          "name": "_voter",
          "type": "address"
        }
      ],
      "name": "hasUserVoted",
      "outputs": [
        {
          "internalType": "bool",
          "name": "",
          "type": "bool"
        }
      ],
      "stateMutability": "view",
      "type": "function"
    },
    {
      "inputs": [
        {
          "internalType": "string",
          "name": "_electionId",
          "type": "string"
        }
      ],
      "name": "isElectionActive",
      "outputs": [
        {
          "internalType": "bool",
          "name": "",
          "type": "bool"
        }
      ],
      "stateMutability": "view",
      "type": "function"
    },
    {
      "inputs": [],
      "name": "owner",
      "outputs": [
        {
          "internalType": "address",
          "name": "",
          "type": "address"
        }
      ],
      "stateMutability": "view",
      "type": "function"
    },
    {
      "inputs": [
        {
          "internalType": "string",
          "name": "_userId",
          "type": "string"
        }
      ],
      "name": "registerUser",
      "outputs": [],
      "stateMutability": "nonpayable",
      "type": "function"
    },
    {
      "inputs": [
        {
          "internalType": "address",
          "name": "_adminAddress",
          "type": "address"
        },
        {
          "internalType": "bool",
          "name": "_isAdmin",
          "type": "bool"
        }
      ],
      "name": "setAdmin",
      "outputs": [],
      "stateMutability": "nonpayable",
      "type": "function"
    },
    {
      "inputs": [
        {
          "internalType": "string",
          "name": "_electionId",
          "type": "string"
        }
      ],
      "name": "tallyElectionResults",
      "outputs": [],
      "stateMutability": "nonpayable",
      "type": "function"
    },
    {
      "inputs": [
        {
          "internalType": "address",
          "name": "newOwner",
          "type": "address"
        }
      ],
      "name": "transferOwnership",
      "outputs": [],
      "stateMutability": "nonpayable",
      "type": "function"
    },
    {
      "inputs": [
        {
          "internalType": "address",
          "name": "",
          "type": "address"
        }
      ],
      "name": "voters",
      "outputs": [
        {
          "internalType": "bool",
          "name": "isRegistered",
          "type": "bool"
        },
        {
          "internalType": "string",
          "name": "userId",
          "type": "string"
        }
      ],
      "stateMutability": "view",
      "type": "function"
    }
  ],
  "bytecode": "0x608060405234801561001057600080fd5b50336000806101000a81548173ffffffffffffffffffffffffffffffffffffffff021916908373ffffffffffffffffffffffffffffffffffffffff1602179055506001600460003373ffffffffffffffffffffffffffffffffffffffff1673ffffffffffffffffffffffffffffffffffffffff16815260200190815260200160002060006101000a81548160ff021916908315150217905550612d55806100b86000396000f3fe608060405234801561001057600080fd5b50600436106101005760003560e01c80638da5cb5b11610097578063c479fc9111610066578063c479fc91146102ed578063d3f7655b14610309578063f2fde38b14610327578063f49105a71461034357610100565b80638da5cb5b14610236578063928cb52e14610254578063a3ec138d1461028c578063b7ff50fc146102bd57610100565b8063494c8d52116100d3578063494c8d52146101b25780634b0bddd2146101e2578063704f1b94146101fe57806377de959f1461021a57610100565b80631215872a1461010557806340284753146101215780634149738514610152578063429b62e514610182575b600080fd5b61011f600480360381019061011a9190611b39565b610373565b005b61013b60048036038101906101369190611b39565b6106ab565b604051610149929190611c1a565b60405180910390f35b61016c60048036038101906101679190611ca8565b6107d9565b6040516101799190611d1f565b60405180910390f35b61019c60048036038101906101979190611d3a565b61084f565b6040516101a99190611d1f565b60405180910390f35b6101cc60048036038101906101c79190611d93565b61086f565b6040516101d99190611dc0565b60405180910390f35b6101fc60048036038101906101f79190611e0e565b61091b565b005b61021860048036038101906102139190611b39565b610a52565b005b610234600480360381019061022f9190611f34565b610ba6565b005b61023e610e33565b60405161024b9190612012565b60405180910390f35b61026e60048036038101906102699190611b39565b610e57565b60405161028399989796959493929190612139565b60405180910390f35b6102a660048036038101906102a19190611d3a565b6110f6565b6040516102b49291906121db565b60405180910390f35b6102d760048036038101906102d2919061220b565b6111af565b6040516102e49190612283565b60405180910390f35b6103076004803603810190610302919061220b565b6111f7565b005b61031161158b565b60405161031e9190612283565b60405180910390f35b610341600480360381019061033c9190611d3a565b611598565b005b61035d60048036038101906103589190611b39565b611752565b60405161036a9190611d1f565b60405180910390f35b600460003373ffffffffffffffffffffffffffffffffffffffff1673ffffffffffffffffffffffffffffffffffffffff16815260200190815260200160002060009054906101000a900460ff1680610416575060008054906101000a900473ffffffffffffffffffffffffffffffffffffffff1673ffffffffffffffffffffffffffffffffffffffff163373ffffffffffffffffffffffffffffffffffffffff16145b610455576040517f08c379a000000000000000000000000000000000000000000000000000000000815260040161044c906122ea565b60405180910390fd5b60006002826040516104679190612346565b9081526020016040518091039020905080600a0160009054906101000a900460ff16156104c9576040517f08c379a00000000000000000000000000000000000000000000000000000000081526004016104c0906123a9565b60405180910390fd5b8060040154421161050f576040517f08c379a000000000000000000000000000000000000000000000000000000000815260040161050690612415565b60405180910390fd5b60008060405180602001604052806000815250905060005b836007018054905081101561062657600084600701828154811061054e5761054d612435565b5b90600052602060002001805461056390612493565b80601f016020809104026020016040519081016040528092919081815260200182805461058f90612493565b80156105dc5780601f106105b1576101008083540402835291602001916105dc565b820191906000526020600020905b8154815290600101906020018083116105bf57829003601f168201915b50505050509050600085600601826040516105f79190612346565b908152602001604051809103902054905084811115610617578094508193505b50508080600101915050610527565b50808360090190816106389190612670565b50600183600a0160006101000a81548160ff021916908315150217905550836040516106649190612346565b60405180910390207f61ffd826e5224254d26f0a29fff2948ad3c9fc79104a435c775d026cd5e57ac0828460405161069d929190611c1a565b60405180910390a250505050565b60606000806002846040516106c09190612346565b9081526020016040518091039020905080600a0160009054906101000a900460ff16610721576040517f08c379a00000000000000000000000000000000000000000000000000000000081526004016107189061278e565b60405180910390fd5b80600901805461073090612493565b80601f016020809104026020016040519081016040528092919081815260200182805461075c90612493565b80156107a95780601f1061077e576101008083540402835291602001916107a9565b820191906000526020600020905b81548152906001019060200180831161078c57829003601f168201915b5050505050925080600601836040516107c29190612346565b908152602001604051809103902054915050915091565b6000600160008373ffffffffffffffffffffffffffffffffffffffff1673ffffffffffffffffffffffffffffffffffffffff1681526020019081526020016000206001018360405161082b9190612346565b908152602001604051809103902060009054906101000a900460ff16905092915050565b60046020528060005260406000206000915054906101000a900460ff1681565b6003818154811061087f57600080fd5b90600052602060002001600091509050805461089a90612493565b80601f01602080910402602001604051908101604052809291908181526020018280546108c690612493565b80156109135780601f106108e857610100808354040283529160200191610913565b820191906000526020600020905b8154815290600101906020018083116108f657829003601f168201915b505050505081565b60008054906101000a900473ffffffffffffffffffffffffffffffffffffffff1673ffffffffffffffffffffffffffffffffffffffff163373ffffffffffffffffffffffffffffffffffffffff16146109a9576040517f08c379a00000000000000000000000000000000000000000000000000000000081526004016109a0906127fa565b60405180910390fd5b80600460008473ffffffffffffffffffffffffffffffffffffffff1673ffffffffffffffffffffffffffffffffffffffff16815260200190815260200160002060006101000a81548160ff0219169083151502179055508173ffffffffffffffffffffffffffffffffffffffff167fc63c72d6995119c079ef24c02679d49838905c8e81df9e632011b914e6f592f682604051610a469190611d1f565b60405180910390a25050565b600160003373ffffffffffffffffffffffffffffffffffffffff1673ffffffffffffffffffffffffffffffffffffffff16815260200190815260200160002060000160009054906101000a900460ff1615610ae2576040517f08c379a0000000000000000000000000000000000000000000000000000000008152600401610ad990612866565b60405180910390fd5b6000600160003373ffffffffffffffffffffffffffffffffffffffff1673ffffffffffffffffffffffffffffffffffffffff168152602001908152602001600020905060018160000160006101000a81548160ff02191690831515021790555081816002019081610b539190612670565b503373ffffffffffffffffffffffffffffffffffffffff167f48cac28ad4dc618e15f4c2dd5e97751182f166de97b25618318b2112aa951a2f83604051610b9a9190611dc0565b60405180910390a25050565b600160003373ffffffffffffffffffffffffffffffffffffffff1673ffffffffffffffffffffffffffffffffffffffff16815260200190815260200160002060000160009054906101000a900460ff16610c35576040517f08c379a0000000000000000000000000000000000000000000000000000000008152600401610c2c906128d2565b60405180910390fd5b428311610c77576040517f08c379a0000000000000000000000000000000000000000000000000000000008152600401610c6e9061293e565b60405180910390fd5b828211610cb9576040517f08c379a0000000000000000000000000000000000000000000000000000000008152600401610cb0906129d0565b60405180910390fd5b6000600286604051610ccb9190612346565b9081526020016040518091039020905085816000019081610cec9190612670565b50338160010160006101000a81548173ffffffffffffffffffffffffffffffffffffffff021916908373ffffffffffffffffffffffffffffffffffffffff16021790555084816002019081610d419190612670565b5083816003018190555082816004018190555060018160050160006101000a81548160ff02191690831515021790555081816007019080519060200190610d89929190611905565b50600081600a0160006101000a81548160ff021916908315150217905550600386908060018154018082558091505060019003906000526020600020016000909190919091509081610ddb9190612670565b5085604051610dea9190612346565b60405180910390207ffed5b1287d3e9d469098cce366e574d93f90404841e27b8b4d8342266640b5fb3387604051610e239291906129f0565b60405180910390a2505050505050565b60008054906101000a900473ffffffffffffffffffffffffffffffffffffffff1681565b6000606060008060008060608060008060028b604051610e779190612346565b908152602001604051809103902090508060010160009054906101000a900473ffffffffffffffffffffffffffffffffffffffff1681600201826003015483600401548460050160009054906101000a900460ff168560080154866007018760090188600a0160009054906101000a900460ff16878054610ef790612493565b80601f0160208091040260200160405190810160405280929190818152602001828054610f2390612493565b8015610f705780601f10610f4557610100808354040283529160200191610f70565b820191906000526020600020905b815481529060010190602001808311610f5357829003601f168201915b5050505050975082805480602002602001604051908101604052809291908181526020016000905b82821015611044578382906000526020600020018054610fb790612493565b80601f0160208091040260200160405190810160405280929190818152602001828054610fe390612493565b80156110305780601f1061100557610100808354040283529160200191611030565b820191906000526020600020905b81548152906001019060200180831161101357829003601f168201915b505050505081526020019060010190610f98565b50505050925081805461105690612493565b80601f016020809104026020016040519081016040528092919081815260200182805461108290612493565b80156110cf5780601f106110a4576101008083540402835291602001916110cf565b820191906000526020600020905b8154815290600101906020018083116110b257829003601f168201915b50505050509150995099509950995099509950995099509950509193959799909294969850565b60016020528060005260406000206000915090508060000160009054906101000a900460ff169080600201805461112c90612493565b80601f016020809104026020016040519081016040528092919081815260200182805461115890612493565b80156111a55780601f1061117a576101008083540402835291602001916111a5565b820191906000526020600020905b81548152906001019060200180831161118857829003601f168201915b5050505050905082565b60006002836040516111c19190612346565b9081526020016040518091039020600601826040516111e09190612346565b908152602001604051809103902054905092915050565b600160003373ffffffffffffffffffffffffffffffffffffffff1673ffffffffffffffffffffffffffffffffffffffff16815260200190815260200160002060000160009054906101000a900460ff16611286576040517f08c379a000000000000000000000000000000000000000000000000000000000815260040161127d906128d2565b60405180910390fd5b600160003373ffffffffffffffffffffffffffffffffffffffff1673ffffffffffffffffffffffffffffffffffffffff168152602001908152602001600020600101826040516112d69190612346565b908152602001604051809103902060009054906101000a900460ff1615611332576040517f08c379a000000000000000000000000000000000000000000000000000000000815260040161132990612a6c565b60405180910390fd5b61133b82611752565b61137a576040517f08c379a000000000000000000000000000000000000000000000000000000000815260040161137190612ad8565b60405180910390fd5b61138482826117af565b6113c3576040517f08c379a00000000000000000000000000000000000000000000000000000000081526004016113ba90612b44565b60405180910390fd5b60006002836040516113d59190612346565b90815260200160405180910390209050806003015442101561142c576040517f08c379a000000000000000000000000000000000000000000000000000000000815260040161142390612bb0565b60405180910390fd5b8060040154421115611473576040517f08c379a000000000000000000000000000000000000000000000000000000000815260040161146a90612c1c565b60405180910390fd5b60018060003373ffffffffffffffffffffffffffffffffffffffff1673ffffffffffffffffffffffffffffffffffffffff168152602001908152602001600020600101846040516114c49190612346565b908152602001604051809103902060006101000a81548160ff02191690831515021790555080600601826040516114fb9190612346565b9081526020016040518091039020600081548092919061151a90612c6b565b919050555080600801600081548092919061153490612c6b565b9190505550826040516115479190612346565b60405180910390207f137ad23732468494166ec34d1367743690ffa17f6ceac8429cba8fc35d088b6e8360405161157e9190611dc0565b60405180910390a2505050565b6000600380549050905090565b60008054906101000a900473ffffffffffffffffffffffffffffffffffffffff1673ffffffffffffffffffffffffffffffffffffffff163373ffffffffffffffffffffffffffffffffffffffff1614611626576040517f08c379a000000000000000000000000000000000000000000000000000000000815260040161161d906127fa565b60405180910390fd5b600073ffffffffffffffffffffffffffffffffffffffff168173ffffffffffffffffffffffffffffffffffffffff1603611695576040517f08c379a000000000000000000000000000000000000000000000000000000000815260040161168c90612cff565b60405180910390fd5b8073ffffffffffffffffffffffffffffffffffffffff1660008054906101000a900473ffffffffffffffffffffffffffffffffffffffff1673ffffffffffffffffffffffffffffffffffffffff167f8be0079c531659141344cd1fd0a4f28419497f9722a3daafe3b4186f6b6457e060405160405180910390a3806000806101000a81548173ffffffffffffffffffffffffffffffffffffffff021916908373ffffffffffffffffffffffffffffffffffffffff16021790555050565b6000806002836040516117659190612346565b908152602001604051809103902090508060050160009054906101000a900460ff168015611797575080600301544210155b80156117a7575080600401544211155b915050919050565b6000806002846040516117c29190612346565b9081526020016040518091039020600701805480602002602001604051908101604052809291908181526020016000905b8282101561189f57838290600052602060002001805461181290612493565b80601f016020809104026020016040519081016040528092919081815260200182805461183e90612493565b801561188b5780601f106118605761010080835404028352916020019161188b565b820191906000526020600020905b81548152906001019060200180831161186e57829003601f168201915b5050505050815260200190600101906117f3565b50505050905060005b81518110156118f85783805190602001208282815181106118cc576118cb612435565b5b602002602001015180519060200120036118eb576001925050506118ff565b80806001019150506118a8565b5060009150505b92915050565b82805482825590600052602060002090810192821561194d579160200282015b8281111561194c57825182908161193c9190612670565b5091602001919060010190611925565b5b50905061195a919061195e565b5090565b5b8082111561197e57600081816119759190611982565b5060010161195f565b5090565b50805461198e90612493565b6000825580601f106119a057506119bf565b601f0160209004906000526020600020908101906119be91906119c2565b5b50565b5b808211156119db5760008160009055506001016119c3565b5090565b6000604051905090565b600080fd5b600080fd5b600080fd5b600080fd5b6000601f19601f8301169050919050565b7f4e487b7100000000000000000000000000000000000000000000000000000000600052604160045260246000fd5b611a46826119fd565b810181811067ffffffffffffffff82111715611a6557611a64611a0e565b5b80604052505050565b6000611a786119df565b9050611a848282611a3d565b919050565b600067ffffffffffffffff821115611aa457611aa3611a0e565b5b611aad826119fd565b9050602081019050919050565b82818337600083830152505050565b6000611adc611ad784611a89565b611a6e565b905082815260208101848484011115611af857611af76119f8565b5b611b03848285611aba565b509392505050565b600082601f830112611b2057611b1f6119f3565b5b8135611b30848260208601611ac9565b91505092915050565b600060208284031215611b4f57611b4e6119e9565b5b600082013567ffffffffffffffff811115611b6d57611b6c6119ee565b5b611b7984828501611b0b565b91505092915050565b600081519050919050565b600082825260208201905092915050565b60005b83811015611bbc578082015181840152602081019050611ba1565b60008484015250505050565b6000611bd382611b82565b611bdd8185611b8d565b9350611bed818560208601611b9e565b611bf6816119fd565b840191505092915050565b6000819050919050565b611c1481611c01565b82525050565b60006040820190508181036000830152611c348185611bc8565b9050611c436020830184611c0b565b9392505050565b600073ffffffffffffffffffffffffffffffffffffffff82169050919050565b6000611c7582611c4a565b9050919050565b611c8581611c6a565b8114611c9057600080fd5b50565b600081359050611ca281611c7c565b92915050565b60008060408385031215611cbf57611cbe6119e9565b5b600083013567ffffffffffffffff811115611cdd57611cdc6119ee565b5b611ce985828601611b0b565b9250506020611cfa85828601611c93565b9150509250929050565b60008115159050919050565b611d1981611d04565b82525050565b6000602082019050611d346000830184611d10565b92915050565b600060208284031215611d5057611d4f6119e9565b5b6000611d5e84828501611c93565b91505092915050565b611d7081611c01565b8114611d7b57600080fd5b50565b600081359050611d8d81611d67565b92915050565b600060208284031215611da957611da86119e9565b5b6000611db784828501611d7e565b91505092915050565b60006020820190508181036000830152611dda8184611bc8565b905092915050565b611deb81611d04565b8114611df657600080fd5b50565b600081359050611e0881611de2565b92915050565b60008060408385031215611e2557611e246119e9565b5b6000611e3385828601611c93565b9250506020611e4485828601611df9565b9150509250929050565b600067ffffffffffffffff821115611e6957611e68611a0e565b5b602082029050602081019050919050565b600080fd5b6000611e92611e8d84611e4e565b611a6e565b90508083825260208201905060208402830185811115611eb557611eb4611e7a565b5b835b81811015611efc57803567ffffffffffffffff811115611eda57611ed96119f3565b5b808601611ee78982611b0b565b85526020850194505050602081019050611eb7565b5050509392505050565b600082601f830112611f1b57611f1a6119f3565b5b8135611f2b848260208601611e7f565b91505092915050565b600080600080600060a08688031215611f5057611f4f6119e9565b5b600086013567ffffffffffffffff811115611f6e57611f6d6119ee565b5b611f7a88828901611b0b565b955050602086013567ffffffffffffffff811115611f9b57611f9a6119ee565b5b611fa788828901611b0b565b9450506040611fb888828901611d7e565b9350506060611fc988828901611d7e565b925050608086013567ffffffffffffffff811115611fea57611fe96119ee565b5b611ff688828901611f06565b9150509295509295909350565b61200c81611c6a565b82525050565b60006020820190506120276000830184612003565b92915050565b600081519050919050565b600082825260208201905092915050565b6000819050602082019050919050565b600082825260208201905092915050565b600061207582611b82565b61207f8185612059565b935061208f818560208601611b9e565b612098816119fd565b840191505092915050565b60006120af838361206a565b905092915050565b6000602082019050919050565b60006120cf8261202d565b6120d98185612038565b9350836020820285016120eb85612049565b8060005b85811015612127578484038952815161210885826120a3565b9450612113836120b7565b925060208a019950506001810190506120ef565b50829750879550505050505092915050565b60006101208201905061214f600083018c612003565b8181036020830152612161818b611bc8565b9050612170604083018a611c0b565b61217d6060830189611c0b565b61218a6080830188611d10565b61219760a0830187611c0b565b81810360c08301526121a981866120c4565b905081810360e08301526121bd8185611bc8565b90506121cd610100830184611d10565b9a9950505050505050505050565b60006040820190506121f06000830185611d10565b81810360208301526122028184611bc8565b90509392505050565b60008060408385031215612222576122216119e9565b5b600083013567ffffffffffffffff8111156122405761223f6119ee565b5b61224c85828601611b0b565b925050602083013567ffffffffffffffff81111561226d5761226c6119ee565b5b61227985828601611b0b565b9150509250929050565b60006020820190506122986000830184611c0b565b92915050565b7f4f6e6c792061646d696e2063616e2063616c6c20746869730000000000000000600082015250565b60006122d4601883611b8d565b91506122df8261229e565b602082019050919050565b60006020820190508181036000830152612303816122c7565b9050919050565b600081905092915050565b600061232082611b82565b61232a818561230a565b935061233a818560208601611b9e565b80840191505092915050565b60006123528284612315565b915081905092915050565b7f526573756c747320616c72656164792074616c6c696564000000000000000000600082015250565b6000612393601783611b8d565b915061239e8261235d565b602082019050919050565b600060208201905081810360008301526123c281612386565b9050919050565b7f456c656374696f6e206e6f7420656e6465642079657400000000000000000000600082015250565b60006123ff601683611b8d565b915061240a826123c9565b602082019050919050565b6000602082019050818103600083015261242e816123f2565b9050919050565b7f4e487b7100000000000000000000000000000000000000000000000000000000600052603260045260246000fd5b7f4e487b7100000000000000000000000000000000000000000000000000000000600052602260045260246000fd5b600060028204905060018216806124ab57607f821691505b6020821081036124be576124bd612464565b5b50919050565b60008190508160005260206000209050919050565b60006020601f8301049050919050565b600082821b905092915050565b6000600883026125267fffffffffffffffffffffffffffffffffffffffffffffffffffffffffffffffff826124e9565b61253086836124e9565b95508019841693508086168417925050509392505050565b6000819050919050565b600061256d61256861256384611c01565b612548565b611c01565b9050919050565b6000819050919050565b61258783612552565b61259b61259382612574565b8484546124f6565b825550505050565b600090565b6125b06125a3565b6125bb81848461257e565b505050565b5b818110156125df576125d46000826125a8565b6001810190506125c1565b5050565b601f821115612624576125f5816124c4565b6125fe846124d9565b8101602085101561260d578190505b612621612619856124d9565b8301826125c0565b50505b505050565b600082821c905092915050565b600061264760001984600802612629565b1980831691505092915050565b60006126608383612636565b9150826002028217905092915050565b61267982611b82565b67ffffffffffffffff81111561269257612691611a0e565b5b61269c8254612493565b6126a78282856125e3565b600060209050601f8311600181146126da57600084156126c8578287015190505b6126d28582612654565b86555061273a565b601f1984166126e8866124c4565b60005b82811015612710578489015182556001820191506020850194506020810190506126eb565b8683101561272d5784890151612729601f891682612636565b8355505b6001600288020188555050505b505050505050565b7f526573756c7473206e6f742074616c6c69656420796574000000000000000000600082015250565b6000612778601783611b8d565b915061278382612742565b602082019050919050565b600060208201905081810360008301526127a78161276b565b9050919050565b7f4f6e6c79206f776e65722063616e2063616c6c20746869730000000000000000600082015250565b60006127e4601883611b8d565b91506127ef826127ae565b602082019050919050565b60006020820190508181036000830152612813816127d7565b9050919050565b7f5573657220616c72656164792072656769737465726564000000000000000000600082015250565b6000612850601783611b8d565b915061285b8261281a565b602082019050919050565b6000602082019050818103600083015261287f81612843565b9050919050565b7f55736572206e6f74207265676973746572656400000000000000000000000000600082015250565b60006128bc601383611b8d565b91506128c782612886565b602082019050919050565b600060208201905081810360008301526128eb816128af565b9050919050565b7f53746172742074696d65206d75737420626520696e2066757475726500000000600082015250565b6000612928601c83611b8d565b9150612933826128f2565b602082019050919050565b600060208201905081810360008301526129578161291b565b9050919050565b7f456e642074696d65206d7573742062652061667465722073746172742074696d60008201527f6500000000000000000000000000000000000000000000000000000000000000602082015250565b60006129ba602183611b8d565b91506129c58261295e565b604082019050919050565b600060208201905081810360008301526129e9816129ad565b9050919050565b6000604082019050612a056000830185612003565b8181036020830152612a178184611bc8565b90509392505050565b7f416c726561647920766f74656420696e207468697320656c656374696f6e0000600082015250565b6000612a56601e83611b8d565b9150612a6182612a20565b602082019050919050565b60006020820190508181036000830152612a8581612a49565b9050919050565b7f456c656374696f6e206973206e6f742061637469766500000000000000000000600082015250565b6000612ac2601683611b8d565b9150612acd82612a8c565b602082019050919050565b60006020820190508181036000830152612af181612ab5565b9050919050565b7f496e76616c69642063616e646964617465000000000000000000000000000000600082015250565b6000612b2e601183611b8d565b9150612b3982612af8565b602082019050919050565b60006020820190508181036000830152612b5d81612b21565b9050919050565b7f456c656374696f6e20686173206e6f7420737461727465640000000000000000600082015250565b6000612b9a601883611b8d565b9150612ba582612b64565b602082019050919050565b60006020820190508181036000830152612bc981612b8d565b9050919050565b7f456c656374696f6e2068617320656e6465640000000000000000000000000000600082015250565b6000612c06601283611b8d565b9150612c1182612bd0565b602082019050919050565b60006020820190508181036000830152612c3581612bf9565b9050919050565b7f4e487b7100000000000000000000000000000000000000000000000000000000600052601160045260246000fd5b6000612c7682611c01565b91507fffffffffffffffffffffffffffffffffffffffffffffffffffffffffffffffff8203612ca857612ca7612c3c565b5b600182019050919050565b7f4e6577206f776e657220697320746865207a65726f2061646472657373000000600082015250565b6000612ce9601d83611b8d565b9150612cf482612cb3565b602082019050919050565b60006020820190508181036000830152612d1881612cdc565b905091905056fea26469706673582212206433387112b03cedc0bdc7db2cfe92f5a6a93e9f16dad2e6e99b52e1a3336c7764736f6c63430008180033",
  "linkReferences": {},
  "deployedLinkReferences": {}
}